{
  "contractName": "FlightSuretyApp",
  "abi": [
    {
      "inputs": [
        {
          "internalType": "address",
          "name": "flightDataContractAddress",
          "type": "address"
        }
      ],
      "payable": false,
      "stateMutability": "nonpayable",
      "type": "constructor"
    },
    {
      "anonymous": false,
      "inputs": [
        {
          "indexed": false,
          "internalType": "address",
          "name": "airline",
          "type": "address"
        },
        {
          "indexed": false,
          "internalType": "string",
          "name": "flight",
          "type": "string"
        },
        {
          "indexed": false,
          "internalType": "uint256",
          "name": "timestamp",
          "type": "uint256"
        },
        {
          "indexed": false,
          "internalType": "uint8",
          "name": "status",
          "type": "uint8"
        }
      ],
      "name": "FlightStatusInfo",
      "type": "event"
    },
    {
      "anonymous": false,
      "inputs": [
        {
          "indexed": false,
          "internalType": "address",
          "name": "airline",
          "type": "address"
        },
        {
          "indexed": false,
          "internalType": "string",
          "name": "flight",
          "type": "string"
        },
        {
          "indexed": false,
          "internalType": "uint256",
          "name": "timestamp",
          "type": "uint256"
        },
        {
          "indexed": false,
          "internalType": "uint8",
          "name": "status",
          "type": "uint8"
        }
      ],
      "name": "OracleReport",
      "type": "event"
    },
    {
      "anonymous": false,
      "inputs": [
        {
          "indexed": false,
          "internalType": "uint8",
          "name": "index",
          "type": "uint8"
        },
        {
          "indexed": false,
          "internalType": "address",
          "name": "airline",
          "type": "address"
        },
        {
          "indexed": false,
          "internalType": "string",
          "name": "flight",
          "type": "string"
        },
        {
          "indexed": false,
          "internalType": "uint256",
          "name": "timestamp",
          "type": "uint256"
        }
      ],
      "name": "OracleRequest",
      "type": "event"
    },
    {
      "payable": true,
      "stateMutability": "payable",
      "type": "fallback"
    },
    {
      "constant": true,
      "inputs": [],
      "name": "REGISTRATION_FEE",
      "outputs": [
        {
          "internalType": "uint256",
          "name": "",
          "type": "uint256"
        }
      ],
      "payable": false,
      "stateMutability": "view",
      "type": "function"
    },
    {
      "constant": true,
      "inputs": [],
      "name": "isOperational",
      "outputs": [
        {
          "internalType": "bool",
          "name": "",
          "type": "bool"
        }
      ],
      "payable": false,
      "stateMutability": "view",
      "type": "function"
    },
    {
      "constant": false,
      "inputs": [
        {
          "internalType": "address",
          "name": "authorizedUser",
          "type": "address"
        },
        {
          "internalType": "bool",
          "name": "status",
          "type": "bool"
        }
      ],
      "name": "setAuthorizedUser",
      "outputs": [],
      "payable": false,
      "stateMutability": "nonpayable",
      "type": "function"
    },
    {
      "constant": false,
      "inputs": [
        {
          "internalType": "address",
          "name": "newOwner",
          "type": "address"
        }
      ],
      "name": "setContractOwner",
      "outputs": [],
      "payable": false,
      "stateMutability": "nonpayable",
      "type": "function"
    },
    {
      "constant": false,
      "inputs": [
        {
          "internalType": "bool",
          "name": "mode",
          "type": "bool"
        }
      ],
      "name": "setOperatingStatus",
      "outputs": [],
      "payable": false,
      "stateMutability": "nonpayable",
      "type": "function"
    },
    {
      "constant": false,
      "inputs": [
        {
          "internalType": "string",
          "name": "airlineCode",
          "type": "string"
        }
      ],
      "name": "registerAirline",
      "outputs": [
        {
          "internalType": "bool",
          "name": "success",
          "type": "bool"
        },
        {
          "internalType": "uint256",
          "name": "votes",
          "type": "uint256"
        }
      ],
      "payable": false,
      "stateMutability": "nonpayable",
      "type": "function"
    },
    {
      "constant": false,
      "inputs": [
        {
          "internalType": "string",
          "name": "airlineCode",
          "type": "string"
        },
        {
          "internalType": "uint256",
          "name": "timestamp",
          "type": "uint256"
        }
      ],
      "name": "registerFlight",
      "outputs": [],
      "payable": false,
      "stateMutability": "nonpayable",
      "type": "function"
    },
    {
      "constant": false,
      "inputs": [
        {
          "internalType": "address",
          "name": "airline",
          "type": "address"
        },
        {
          "internalType": "string",
          "name": "flight",
          "type": "string"
        },
        {
          "internalType": "uint256",
          "name": "timestamp",
          "type": "uint256"
        }
      ],
      "name": "fetchFlightStatus",
      "outputs": [],
      "payable": false,
      "stateMutability": "nonpayable",
      "type": "function"
    },
    {
      "constant": false,
      "inputs": [],
      "name": "fund",
      "outputs": [],
      "payable": true,
      "stateMutability": "payable",
      "type": "function"
    },
    {
      "constant": false,
      "inputs": [],
      "name": "registerOracle",
      "outputs": [],
      "payable": true,
      "stateMutability": "payable",
      "type": "function"
    },
    {
      "constant": true,
      "inputs": [],
      "name": "getMyIndexes",
      "outputs": [
        {
          "internalType": "uint8[3]",
          "name": "",
          "type": "uint8[3]"
        }
      ],
      "payable": false,
      "stateMutability": "view",
      "type": "function"
    },
    {
      "constant": false,
      "inputs": [
        {
          "internalType": "uint8",
          "name": "index",
          "type": "uint8"
        },
        {
          "internalType": "address",
          "name": "airline",
          "type": "address"
        },
        {
          "internalType": "string",
          "name": "flight",
          "type": "string"
        },
        {
          "internalType": "uint256",
          "name": "timestamp",
          "type": "uint256"
        },
        {
          "internalType": "uint8",
          "name": "statusCode",
          "type": "uint8"
        }
      ],
      "name": "submitOracleResponse",
      "outputs": [],
      "payable": false,
      "stateMutability": "nonpayable",
      "type": "function"
    },
    {
      "constant": false,
      "inputs": [],
      "name": "creditInsurees",
      "outputs": [],
      "payable": false,
      "stateMutability": "nonpayable",
      "type": "function"
    },
    {
      "constant": false,
      "inputs": [],
      "name": "payPassenger",
      "outputs": [],
      "payable": true,
      "stateMutability": "payable",
      "type": "function"
    },
    {
      "constant": false,
      "inputs": [
        {
          "internalType": "address",
          "name": "airline",
          "type": "address"
        }
      ],
      "name": "approveAirline",
      "outputs": [],
      "payable": false,
      "stateMutability": "nonpayable",
      "type": "function"
    },
    {
      "constant": false,
      "inputs": [],
      "name": "payRegistrationFee",
      "outputs": [],
      "payable": true,
      "stateMutability": "payable",
      "type": "function"
    },
    {
      "constant": true,
      "inputs": [],
      "name": "getPassengerInsurances",
      "outputs": [
        {
          "internalType": "bytes32[]",
          "name": "",
          "type": "bytes32[]"
        }
      ],
      "payable": false,
      "stateMutability": "view",
      "type": "function"
    },
    {
      "constant": true,
      "inputs": [
        {
          "internalType": "bytes32",
          "name": "flightIdentifier",
          "type": "bytes32"
        }
      ],
      "name": "getPassengerInsurance",
      "outputs": [
        {
          "internalType": "uint256",
          "name": "",
          "type": "uint256"
        },
        {
          "internalType": "uint8",
          "name": "",
          "type": "uint8"
        }
      ],
      "payable": false,
      "stateMutability": "view",
      "type": "function"
    },
    {
      "constant": true,
      "inputs": [],
      "name": "getPassengerCredit",
      "outputs": [
        {
          "internalType": "uint256",
          "name": "",
          "type": "uint256"
        }
      ],
      "payable": false,
      "stateMutability": "view",
      "type": "function"
    },
    {
      "constant": true,
      "inputs": [],
      "name": "getFlights",
      "outputs": [
        {
          "internalType": "bytes32[]",
          "name": "",
          "type": "bytes32[]"
        }
      ],
      "payable": false,
      "stateMutability": "view",
      "type": "function"
    },
    {
      "constant": true,
      "inputs": [
        {
          "internalType": "bytes32",
          "name": "flightIdentifier",
          "type": "bytes32"
        }
      ],
      "name": "getFlightInfo",
      "outputs": [
        {
          "internalType": "address",
          "name": "airlineAddress",
          "type": "address"
        },
        {
          "internalType": "bytes32",
          "name": "",
          "type": "bytes32"
        },
        {
          "internalType": "uint8",
          "name": "",
          "type": "uint8"
        },
        {
          "internalType": "uint256",
          "name": "",
          "type": "uint256"
        }
      ],
      "payable": false,
      "stateMutability": "view",
      "type": "function"
    },
    {
      "constant": true,
      "inputs": [],
      "name": "getAllAirlines",
      "outputs": [
        {
          "internalType": "address[]",
          "name": "",
          "type": "address[]"
        }
      ],
      "payable": false,
      "stateMutability": "view",
      "type": "function"
    },
    {
      "constant": true,
      "inputs": [],
      "name": "getAirlineInfo",
      "outputs": [
        {
          "internalType": "address",
          "name": "airlineAddress",
          "type": "address"
        },
        {
          "internalType": "uint8",
          "name": "status",
          "type": "uint8"
        },
        {
          "internalType": "string",
          "name": "airlineCode",
          "type": "string"
        },
        {
          "internalType": "uint256",
          "name": "approvalsNeeded",
          "type": "uint256"
        },
        {
          "internalType": "uint256",
          "name": "totalApprovals",
          "type": "uint256"
        }
      ],
      "payable": false,
      "stateMutability": "view",
      "type": "function"
    },
    {
      "constant": false,
      "inputs": [
        {
          "internalType": "bytes32",
          "name": "flightKey",
          "type": "bytes32"
        }
      ],
      "name": "claimPassengerInsurance",
      "outputs": [],
      "payable": false,
      "stateMutability": "nonpayable",
      "type": "function"
    },
    {
      "constant": false,
      "inputs": [
        {
          "internalType": "bytes32",
          "name": "flightKey",
          "type": "bytes32"
        },
        {
          "internalType": "uint256",
          "name": "amount",
          "type": "uint256"
        }
      ],
      "name": "buyInsurance",
      "outputs": [],
      "payable": true,
      "stateMutability": "payable",
      "type": "function"
    }
  ],
  "bytecode": "0x608060405260016000806101000a81548160ff0219169083151502179055506000600460146101000a81548160ff021916908360ff1602179055503480156200004757600080fd5b50604051620034a2380380620034a2833981810160405260208110156200006d57600080fd5b8101908080519060200190929190505050336040518060400160405280600381526020017f417070000000000000000000000000000000000000000000000000000000000081525081600060016101000a81548173ffffffffffffffffffffffffffffffffffffffff021916908373ffffffffffffffffffffffffffffffffffffffff16021790555080600190805190602001906200010e9291906200019a565b50505080600360006101000a81548173ffffffffffffffffffffffffffffffffffffffff021916908373ffffffffffffffffffffffffffffffffffffffff16021790555080600460006101000a81548173ffffffffffffffffffffffffffffffffffffffff021916908373ffffffffffffffffffffffffffffffffffffffff1602179055505062000249565b828054600181600116156101000203166002900490600052602060002090601f016020900481019282601f10620001dd57805160ff19168380011785556200020e565b828001600101855582156200020e579182015b828111156200020d578251825591602001919060010190620001f0565b5b5090506200021d919062000221565b5090565b6200024691905b808211156200024257600081600090555060010162000228565b5090565b90565b61324980620002596000396000f3fe6080604052600436106101665760003560e01c80635f1cc0e6116100d1578063b3933ce61161008a578063cd905dff11610064578063cd905dff1461088b578063d9e35cca146108ba578063ec492bc6146108e5578063f83f11c01461094157610166565b8063b3933ce6146107ad578063b60d4288146107b7578063c10f2700146107c157610166565b80635f1cc0e6146105dd57806364b4f7511461063057806369a80d991461065b57806394c260ee14610693578063a249225e146106ff578063a34d42b81461075c57610166565b806336cee4841161012357806336cee484146103d257806339cfc995146103e9578063419ca9af146104795780634baa95c5146104ca5780634cc7dbee146105055780635c59059c1461057157610166565b8063110466ed146101685780632432c0f1146101a557806324c534cc146101af5780632520521014610245578063339d2590146102ea578063346cd227146102f4575b005b34801561017457600080fd5b506101a36004803603602081101561018b57600080fd5b810190808035151590602001909291905050506109f1565b005b6101ad610b78565b005b3480156101bb57600080fd5b506101e8600480360360208110156101d257600080fd5b8101908080359060200190929190505050610dcc565b604051808573ffffffffffffffffffffffffffffffffffffffff1673ffffffffffffffffffffffffffffffffffffffff1681526020018481526020018360ff1660ff16815260200182815260200194505050505060405180910390f35b34801561025157600080fd5b506102c96004803603602081101561026857600080fd5b810190808035906020019064010000000081111561028557600080fd5b82018360208201111561029757600080fd5b803590602001918460018302840111640100000000831117156102b957600080fd5b9091929391929390505050610ead565b60405180831515151581526020018281526020019250505060405180910390f35b6102f2610fae565b005b34801561030057600080fd5b506103096110d4565b604051808673ffffffffffffffffffffffffffffffffffffffff1673ffffffffffffffffffffffffffffffffffffffff1681526020018560ff1660ff16815260200180602001848152602001838152602001828103825285818151815260200191508051906020019080838360005b83811015610393578082015181840152602081019050610378565b50505050905090810190601f1680156103c05780820380516001836020036101000a031916815260200191505b50965050505050505060405180910390f35b3480156103de57600080fd5b506103e76112b0565b005b3480156103f557600080fd5b506104776004803603604081101561040c57600080fd5b810190808035906020019064010000000081111561042957600080fd5b82018360208201111561043b57600080fd5b8035906020019184600183028401116401000000008311171561045d57600080fd5b9091929391929390803590602001909291905050506113b5565b005b34801561048557600080fd5b506104c86004803603602081101561049c57600080fd5b81019080803573ffffffffffffffffffffffffffffffffffffffff169060200190929190505050611558565b005b3480156104d657600080fd5b50610503600480360360208110156104ed57600080fd5b81019080803590602001909291905050506116c9565b005b34801561051157600080fd5b5061051a61180e565b6040518080602001828103825283818151815260200191508051906020019060200280838360005b8381101561055d578082015181840152602081019050610542565b505050509050019250505060405180910390f35b34801561057d57600080fd5b50610586611952565b6040518080602001828103825283818151815260200191508051906020019060200280838360005b838110156105c95780820151818401526020810190506105ae565b505050509050019250505060405180910390f35b3480156105e957600080fd5b506105f2611acd565b6040518082600360200280838360005b8381101561061d578082015181840152602081019050610602565b5050505090500191505060405180910390f35b34801561063c57600080fd5b50610645611c40565b6040518082815260200191505060405180910390f35b6106916004803603604081101561067157600080fd5b810190808035906020019092919080359060200190929190505050611c4c565b005b34801561069f57600080fd5b506106a8611d19565b6040518080602001828103825283818151815260200191508051906020019060200280838360005b838110156106eb5780820151818401526020810190506106d0565b505050509050019250505060405180910390f35b34801561070b57600080fd5b5061075a6004803603604081101561072257600080fd5b81019080803573ffffffffffffffffffffffffffffffffffffffff169060200190929190803515159060200190929190505050611e5d565b005b34801561076857600080fd5b506107ab6004803603602081101561077f57600080fd5b81019080803573ffffffffffffffffffffffffffffffffffffffff169060200190929190505050612023565b005b6107b56121d2565b005b6107bf61230e565b005b3480156107cd57600080fd5b50610889600480360360a08110156107e457600080fd5b81019080803560ff169060200190929190803573ffffffffffffffffffffffffffffffffffffffff1690602001909291908035906020019064010000000081111561082e57600080fd5b82018360208201111561084057600080fd5b8035906020019184600183028401116401000000008311171561086257600080fd5b909192939192939080359060200190929190803560ff1690602001909291905050506123c0565b005b34801561089757600080fd5b506108a06128e1565b604051808215151515815260200191505060405180910390f35b3480156108c657600080fd5b506108cf6128f7565b6040518082815260200191505060405180910390f35b3480156108f157600080fd5b5061091e6004803603602081101561090857600080fd5b81019080803590602001909291905050506129d8565b604051808381526020018260ff1660ff1681526020019250505060405180910390f35b34801561094d57600080fd5b506109ef6004803603606081101561096457600080fd5b81019080803573ffffffffffffffffffffffffffffffffffffffff169060200190929190803590602001906401000000008111156109a157600080fd5b8201836020820111156109b357600080fd5b803590602001918460018302840111640100000000831117156109d557600080fd5b909192939192939080359060200190929190505050612acf565b005b600260003373ffffffffffffffffffffffffffffffffffffffff1673ffffffffffffffffffffffffffffffffffffffff16815260200190815260200160002060009054906101000a900460ff1680610a9657503373ffffffffffffffffffffffffffffffffffffffff16600060019054906101000a900473ffffffffffffffffffffffffffffffffffffffff1673ffffffffffffffffffffffffffffffffffffffff16145b600190610b5b576040517f08c379a00000000000000000000000000000000000000000000000000000000081526004018080602001828103825283818154600181600116156101000203166002900481526020019150805460018160011615610100020316600290048015610b4c5780601f10610b2157610100808354040283529160200191610b4c565b820191906000526020600020905b815481529060010190602001808311610b2f57829003601f168201915b50509250505060405180910390fd5b50806000806101000a81548160ff02191690831515021790555050565b678ac7230489e80000341015610bd9576040517f08c379a00000000000000000000000000000000000000000000000000000000081526004018080602001828103825260258152602001806131cd6025913960400191505060405180910390fd5b600a4711610c4f576040517f08c379a000000000000000000000000000000000000000000000000000000000815260040180806020018281038252601a8152602001807f53686f756c64206861766520656e6f7567682062616c616e636500000000000081525060200191505060405180910390fd5b600360009054906101000a900473ffffffffffffffffffffffffffffffffffffffff1673ffffffffffffffffffffffffffffffffffffffff166108fc678ac7230489e800009081150290604051600060405180830381858888f19350505050158015610cbf573d6000803e3d6000fd5b50600460009054906101000a900473ffffffffffffffffffffffffffffffffffffffff1673ffffffffffffffffffffffffffffffffffffffff166331d8050f336040518263ffffffff1660e01b8152600401808273ffffffffffffffffffffffffffffffffffffffff1673ffffffffffffffffffffffffffffffffffffffff168152602001915050600060405180830381600087803b158015610d6157600080fd5b505af1158015610d75573d6000803e3d6000fd5b505050503373ffffffffffffffffffffffffffffffffffffffff166108fc678ac7230489e8000034039081150290604051600060405180830381858888f19350505050158015610dc9573d6000803e3d6000fd5b50565b600080600080600460009054906101000a900473ffffffffffffffffffffffffffffffffffffffff1673ffffffffffffffffffffffffffffffffffffffff166324c534cc866040518263ffffffff1660e01b81526004018082815260200191505060806040518083038186803b158015610e4557600080fd5b505afa158015610e59573d6000803e3d6000fd5b505050506040513d6080811015610e6f57600080fd5b810190808051906020019092919080519060200190929190805190602001909291908051906020019092919050505093509350935093509193509193565b600080600460009054906101000a900473ffffffffffffffffffffffffffffffffffffffff1673ffffffffffffffffffffffffffffffffffffffff1663ee38a7493386866040518463ffffffff1660e01b8152600401808473ffffffffffffffffffffffffffffffffffffffff1673ffffffffffffffffffffffffffffffffffffffff168152602001806020018281038252848482818152602001925080828437600081840152601f19601f820116905080830192505050945050505050600060405180830381600087803b158015610f8557600080fd5b505af1158015610f99573d6000803e3d6000fd5b50505050600180809050915091509250929050565b670de0b6b3a764000034101561102c576040517f08c379a000000000000000000000000000000000000000000000000000000000815260040180806020018281038252601c8152602001807f526567697374726174696f6e206665652069732072657175697265640000000081525060200191505060405180910390fd5b6110346130b1565b61103d33612cc0565b9050604051806040016040528060011515815260200182815250600560003373ffffffffffffffffffffffffffffffffffffffff1673ffffffffffffffffffffffffffffffffffffffff16815260200190815260200160002060008201518160000160006101000a81548160ff0219169083151502179055506020820151816001019060036110cd9291906130d3565b5090505050565b6000806060600080600460009054906101000a900473ffffffffffffffffffffffffffffffffffffffff1673ffffffffffffffffffffffffffffffffffffffff1663720c7cbb336040518263ffffffff1660e01b8152600401808273ffffffffffffffffffffffffffffffffffffffff1673ffffffffffffffffffffffffffffffffffffffff16815260200191505060006040518083038186803b15801561117b57600080fd5b505afa15801561118f573d6000803e3d6000fd5b505050506040513d6000823e3d601f19601f8201168201806040525060a08110156111b957600080fd5b810190808051906020019092919080519060200190929190805160405193929190846401000000008211156111ed57600080fd5b8382019150602082018581111561120357600080fd5b825186600182028301116401000000008211171561122057600080fd5b8083526020830192505050908051906020019080838360005b83811015611254578082015181840152602081019050611239565b50505050905090810190601f1680156112815780820380516001836020036101000a031916815260200191505b506040526020018051906020019092919080519060200190929190505050945094509450945094509091929394565b6000809054906101000a900460ff16611331576040517f08c379a000000000000000000000000000000000000000000000000000000000815260040180806020018281038252601e8152602001807f436f6e74726163742073686f756c64206265206f7065726174696f6e616c000081525060200191505060405180910390fd5b600460009054906101000a900473ffffffffffffffffffffffffffffffffffffffff1673ffffffffffffffffffffffffffffffffffffffff166336cee4846040518163ffffffff1660e01b8152600401600060405180830381600087803b15801561139b57600080fd5b505af11580156113af573d6000803e3d6000fd5b50505050565b6000809054906101000a900460ff16611436576040517f08c379a000000000000000000000000000000000000000000000000000000000815260040180806020018281038252601e8152602001807f436f6e74726163742073686f756c64206265206f7065726174696f6e616c000081525060200191505060405180910390fd5b60006114873385858080601f016020809104026020016040519081016040528093929190818152602001838380828437600081840152601f19601f8201169050808301925050505050505084612e4c565b9050600460009054906101000a900473ffffffffffffffffffffffffffffffffffffffff1673ffffffffffffffffffffffffffffffffffffffff1663e9c0d4493383856040518463ffffffff1660e01b8152600401808473ffffffffffffffffffffffffffffffffffffffff1673ffffffffffffffffffffffffffffffffffffffff1681526020018381526020018281526020019350505050600060405180830381600087803b15801561153a57600080fd5b505af115801561154e573d6000803e3d6000fd5b5050505050505050565b6000809054906101000a900460ff166115d9576040517f08c379a000000000000000000000000000000000000000000000000000000000815260040180806020018281038252601e8152602001807f436f6e74726163742073686f756c64206265206f7065726174696f6e616c000081525060200191505060405180910390fd5b600460009054906101000a900473ffffffffffffffffffffffffffffffffffffffff1673ffffffffffffffffffffffffffffffffffffffff166372dd8bcb33836040518363ffffffff1660e01b8152600401808373ffffffffffffffffffffffffffffffffffffffff1673ffffffffffffffffffffffffffffffffffffffff1681526020018273ffffffffffffffffffffffffffffffffffffffff1673ffffffffffffffffffffffffffffffffffffffff16815260200192505050600060405180830381600087803b1580156116ae57600080fd5b505af11580156116c2573d6000803e3d6000fd5b5050505050565b6000809054906101000a900460ff1661174a576040517f08c379a000000000000000000000000000000000000000000000000000000000815260040180806020018281038252601e8152602001807f436f6e74726163742073686f756c64206265206f7065726174696f6e616c000081525060200191505060405180910390fd5b600460009054906101000a900473ffffffffffffffffffffffffffffffffffffffff1673ffffffffffffffffffffffffffffffffffffffff16632c22971533836040518363ffffffff1660e01b8152600401808373ffffffffffffffffffffffffffffffffffffffff1673ffffffffffffffffffffffffffffffffffffffff16815260200182815260200192505050600060405180830381600087803b1580156117f357600080fd5b505af1158015611807573d6000803e3d6000fd5b5050505050565b6060600460009054906101000a900473ffffffffffffffffffffffffffffffffffffffff1673ffffffffffffffffffffffffffffffffffffffff16634cc7dbee6040518163ffffffff1660e01b815260040160006040518083038186803b15801561187857600080fd5b505afa15801561188c573d6000803e3d6000fd5b505050506040513d6000823e3d601f19601f8201168201806040525060208110156118b657600080fd5b81019080805160405193929190846401000000008211156118d657600080fd5b838201915060208201858111156118ec57600080fd5b825186602082028301116401000000008211171561190957600080fd5b8083526020830192505050908051906020019060200280838360005b83811015611940578082015181840152602081019050611925565b50505050905001604052505050905090565b6060600460009054906101000a900473ffffffffffffffffffffffffffffffffffffffff1673ffffffffffffffffffffffffffffffffffffffff1663a6864533336040518263ffffffff1660e01b8152600401808273ffffffffffffffffffffffffffffffffffffffff1673ffffffffffffffffffffffffffffffffffffffff16815260200191505060006040518083038186803b1580156119f357600080fd5b505afa158015611a07573d6000803e3d6000fd5b505050506040513d6000823e3d601f19601f820116820180604052506020811015611a3157600080fd5b8101908080516040519392919084640100000000821115611a5157600080fd5b83820191506020820185811115611a6757600080fd5b8251866020820283011164010000000082111715611a8457600080fd5b8083526020830192505050908051906020019060200280838360005b83811015611abb578082015181840152602081019050611aa0565b50505050905001604052505050905090565b611ad56130b1565b600560003373ffffffffffffffffffffffffffffffffffffffff1673ffffffffffffffffffffffffffffffffffffffff16815260200190815260200160002060000160009054906101000a900460ff16611b97576040517f08c379a000000000000000000000000000000000000000000000000000000000815260040180806020018281038252601b8152602001807f4e6f74207265676973746572656420617320616e206f7261636c65000000000081525060200191505060405180910390fd5b600560003373ffffffffffffffffffffffffffffffffffffffff1673ffffffffffffffffffffffffffffffffffffffff168152602001908152602001600020600101600380602002604051908101604052809291908260038015611c36576020028201916000905b82829054906101000a900460ff1660ff1681526020019060010190602082600001049283019260010382029150808411611bff5790505b5050505050905090565b670de0b6b3a764000081565b600460009054906101000a900473ffffffffffffffffffffffffffffffffffffffff1673ffffffffffffffffffffffffffffffffffffffff16636ec706803384846040518463ffffffff1660e01b8152600401808473ffffffffffffffffffffffffffffffffffffffff1673ffffffffffffffffffffffffffffffffffffffff1681526020018381526020018281526020019350505050600060405180830381600087803b158015611cfd57600080fd5b505af1158015611d11573d6000803e3d6000fd5b505050505050565b6060600460009054906101000a900473ffffffffffffffffffffffffffffffffffffffff1673ffffffffffffffffffffffffffffffffffffffff166394c260ee6040518163ffffffff1660e01b815260040160006040518083038186803b158015611d8357600080fd5b505afa158015611d97573d6000803e3d6000fd5b505050506040513d6000823e3d601f19601f820116820180604052506020811015611dc157600080fd5b8101908080516040519392919084640100000000821115611de157600080fd5b83820191506020820185811115611df757600080fd5b8251866020820283011164010000000082111715611e1457600080fd5b8083526020830192505050908051906020019060200280838360005b83811015611e4b578082015181840152602081019050611e30565b50505050905001604052505050905090565b600260003373ffffffffffffffffffffffffffffffffffffffff1673ffffffffffffffffffffffffffffffffffffffff16815260200190815260200160002060009054906101000a900460ff1680611f0257503373ffffffffffffffffffffffffffffffffffffffff16600060019054906101000a900473ffffffffffffffffffffffffffffffffffffffff1673ffffffffffffffffffffffffffffffffffffffff16145b600190611fc7576040517f08c379a00000000000000000000000000000000000000000000000000000000081526004018080602001828103825283818154600181600116156101000203166002900481526020019150805460018160011615610100020316600290048015611fb85780601f10611f8d57610100808354040283529160200191611fb8565b820191906000526020600020905b815481529060010190602001808311611f9b57829003601f168201915b50509250505060405180910390fd5b5080600260008473ffffffffffffffffffffffffffffffffffffffff1673ffffffffffffffffffffffffffffffffffffffff16815260200190815260200160002060006101000a81548160ff0219169083151502179055505050565b600260003373ffffffffffffffffffffffffffffffffffffffff1673ffffffffffffffffffffffffffffffffffffffff16815260200190815260200160002060009054906101000a900460ff16806120c857503373ffffffffffffffffffffffffffffffffffffffff16600060019054906101000a900473ffffffffffffffffffffffffffffffffffffffff1673ffffffffffffffffffffffffffffffffffffffff16145b60019061218d576040517f08c379a0000000000000000000000000000000000000000000000000000000008152600401808060200182810382528381815460018160011615610100020316600290048152602001915080546001816001161561010002031660029004801561217e5780601f106121535761010080835404028352916020019161217e565b820191906000526020600020905b81548152906001019060200180831161216157829003601f168201915b50509250505060405180910390fd5b5080600060016101000a81548173ffffffffffffffffffffffffffffffffffffffff021916908373ffffffffffffffffffffffffffffffffffffffff16021790555050565b6000809054906101000a900460ff16612253576040517f08c379a000000000000000000000000000000000000000000000000000000000815260040180806020018281038252601e8152602001807f436f6e74726163742073686f756c64206265206f7065726174696f6e616c000081525060200191505060405180910390fd5b600460009054906101000a900473ffffffffffffffffffffffffffffffffffffffff1673ffffffffffffffffffffffffffffffffffffffff16630c11dedd336040518263ffffffff1660e01b8152600401808273ffffffffffffffffffffffffffffffffffffffff1673ffffffffffffffffffffffffffffffffffffffff168152602001915050600060405180830381600087803b1580156122f457600080fd5b505af1158015612308573d6000803e3d6000fd5b50505050565b3073ffffffffffffffffffffffffffffffffffffffff166108fc349081150290604051600060405180830381858888f19350505050158015612354573d6000803e3d6000fd5b50600360009054906101000a900473ffffffffffffffffffffffffffffffffffffffff1673ffffffffffffffffffffffffffffffffffffffff166108fc349081150290604051600060405180830381858888f193505050501580156123bd573d6000803e3d6000fd5b50565b8560ff16600560003373ffffffffffffffffffffffffffffffffffffffff1673ffffffffffffffffffffffffffffffffffffffff16815260200190815260200160002060010160006003811061241257fe5b602091828204019190069054906101000a900460ff1660ff16148061249f57508560ff16600560003373ffffffffffffffffffffffffffffffffffffffff1673ffffffffffffffffffffffffffffffffffffffff16815260200190815260200160002060010160016003811061248457fe5b602091828204019190069054906101000a900460ff1660ff16145b8061251257508560ff16600560003373ffffffffffffffffffffffffffffffffffffffff1673ffffffffffffffffffffffffffffffffffffffff1681526020019081526020016000206001016002600381106124f757fe5b602091828204019190069054906101000a900460ff1660ff16145b612567576040517f08c379a00000000000000000000000000000000000000000000000000000000081526004018080602001828103825260238152602001806131f26023913960400191505060405180910390fd5b60008686868686604051602001808660ff1660ff1660f81b81526001018573ffffffffffffffffffffffffffffffffffffffff1673ffffffffffffffffffffffffffffffffffffffff1660601b815260140184848082843780830192505050828152602001955050505050506040516020818303038152906040528051906020012090506006600082815260200190815260200160002060000160149054906101000a900460ff16612664576040517f08c379a000000000000000000000000000000000000000000000000000000000815260040180806020018281038252602f81526020018061319e602f913960400191505060405180910390fd5b6006600082815260200190815260200160002060010160008360ff1660ff1681526020019081526020016000203390806001815401808255809150509060018203906000526020600020016000909192909190916101000a81548173ffffffffffffffffffffffffffffffffffffffff021916908373ffffffffffffffffffffffffffffffffffffffff160217905550507f43c853095c2752648493c88b4baac4d580d2594ffb00c6f1d4242d844514f7838686868686604051808673ffffffffffffffffffffffffffffffffffffffff1673ffffffffffffffffffffffffffffffffffffffff168152602001806020018481526020018360ff1660ff1681526020018281038252868682818152602001925080828437600081840152601f19601f820116905080830192505050965050505050505060405180910390a160006006600083815260200190815260200160002060010160008460ff1660ff16815260200190815260200160002080549050106128d8577fe23f5229de535c091e3b7bec2665f5d698192d3b31393066e8987b7a05076b6c8686868686604051808673ffffffffffffffffffffffffffffffffffffffff1673ffffffffffffffffffffffffffffffffffffffff168152602001806020018481526020018360ff1660ff1681526020018281038252868682818152602001925080828437600081840152601f19601f820116905080830192505050965050505050505060405180910390a16128d78686868080601f016020809104026020016040519081016040528093929190818152602001838380828437600081840152601f19601f820116905080830192505050505050508585612f08565b5b50505050505050565b60008060009054906101000a900460ff16905090565b6000600460009054906101000a900473ffffffffffffffffffffffffffffffffffffffff1673ffffffffffffffffffffffffffffffffffffffff166305b64e98336040518263ffffffff1660e01b8152600401808273ffffffffffffffffffffffffffffffffffffffff1673ffffffffffffffffffffffffffffffffffffffff16815260200191505060206040518083038186803b15801561299857600080fd5b505afa1580156129ac573d6000803e3d6000fd5b505050506040513d60208110156129c257600080fd5b8101908080519060200190929190505050905090565b600080600460009054906101000a900473ffffffffffffffffffffffffffffffffffffffff1673ffffffffffffffffffffffffffffffffffffffff1663f505d27333856040518363ffffffff1660e01b8152600401808373ffffffffffffffffffffffffffffffffffffffff1673ffffffffffffffffffffffffffffffffffffffff16815260200182815260200192505050604080518083038186803b158015612a8157600080fd5b505afa158015612a95573d6000803e3d6000fd5b505050506040513d6040811015612aab57600080fd5b81019080805190602001909291908051906020019092919050505091509150915091565b6000612ada33612fc1565b905060008186868686604051602001808660ff1660ff1660f81b81526001018573ffffffffffffffffffffffffffffffffffffffff1673ffffffffffffffffffffffffffffffffffffffff1660601b8152601401848480828437808301925050508281526020019550505050505060405160208183030381529060405280519060200120905060405180604001604052803373ffffffffffffffffffffffffffffffffffffffff168152602001600115158152506006600083815260200190815260200160002060008201518160000160006101000a81548173ffffffffffffffffffffffffffffffffffffffff021916908373ffffffffffffffffffffffffffffffffffffffff16021790555060208201518160000160146101000a81548160ff0219169083151502179055509050507f3ed01f2c3fc24c6b329d931e35b03e390d23497d22b3f90e15b600343e93df118287878787604051808660ff1660ff1681526020018573ffffffffffffffffffffffffffffffffffffffff1673ffffffffffffffffffffffffffffffffffffffff168152602001806020018381526020018281038252858582818152602001925080828437600081840152601f19601f820116905080830192505050965050505050505060405180910390a1505050505050565b612cc86130b1565b612cd06130b1565b612cd983612fc1565b81600060038110612ce657fe5b602002019060ff16908160ff168152505080600060038110612d0457fe5b602002015181600160038110612d1657fe5b602002019060ff16908160ff16815250505b80600060038110612d3557fe5b602002015160ff1681600160038110612d4a57fe5b602002015160ff161415612d8457612d6183612fc1565b81600160038110612d6e57fe5b602002019060ff16908160ff1681525050612d28565b80600160038110612d9157fe5b602002015181600260038110612da357fe5b602002019060ff16908160ff16815250505b80600060038110612dc257fe5b602002015160ff1681600260038110612dd757fe5b602002015160ff161480612e12575080600160038110612df357fe5b602002015160ff1681600260038110612e0857fe5b602002015160ff16145b15612e4357612e2083612fc1565b81600260038110612e2d57fe5b602002019060ff16908160ff1681525050612db5565b80915050919050565b6000838383604051602001808473ffffffffffffffffffffffffffffffffffffffff1673ffffffffffffffffffffffffffffffffffffffff1660601b815260140183805190602001908083835b60208310612ebc5780518252602082019150602081019050602083039250612e99565b6001836020036101000a03801982511681845116808217855250505050505090500182815260200193505050506040516020818303038152906040528051906020012090509392505050565b6000612f15858585612e4c565b9050600460009054906101000a900473ffffffffffffffffffffffffffffffffffffffff1673ffffffffffffffffffffffffffffffffffffffff1663d800fd248285856040518463ffffffff1660e01b8152600401808481526020018381526020018260ff1660ff1681526020019350505050600060405180830381600087803b158015612fa257600080fd5b505af1158015612fb6573d6000803e3d6000fd5b505050505050505050565b600080600a905060008160ff166004601481819054906101000a900460ff168092919060010191906101000a81548160ff021916908360ff16021790555060ff1643034085604051602001808381526020018273ffffffffffffffffffffffffffffffffffffffff1673ffffffffffffffffffffffffffffffffffffffff1660601b8152601401925050506040516020818303038152906040528051906020012060001c8161306c57fe5b06905060fa600460149054906101000a900460ff1660ff1611156130a7576000600460146101000a81548160ff021916908360ff1602179055505b8092505050919050565b6040518060600160405280600390602082028038833980820191505090505090565b826003601f0160209004810192821561315c5791602002820160005b8382111561312d57835183826101000a81548160ff021916908360ff16021790555092602001926001016020816000010492830192600103026130ef565b801561315a5782816101000a81549060ff021916905560010160208160000104928301926001030261312d565b505b509050613169919061316d565b5090565b61319a91905b8082111561319657600081816101000a81549060ff021916905550600101613173565b5090565b9056fe466c69676874206f722074696d657374616d7020646f206e6f74206d61746368206f7261636c652072657175657374416d6f756e74206e656564656420746f207265676973746572206973203130206574686572496e64657820646f6573206e6f74206d61746368206f7261636c652072657175657374a265627a7a72315820a7588d1c3f71a145f83aea72951a5b2991044cc156f4cc3c1f3e17645f60d81764736f6c63430005100032",
  "source": "pragma solidity >=0.4.21 <0.7.0;\n\n// It's important to avoid vulnerabilities due to numeric overflow bugs\n// OpenZeppelin's SafeMath library, when used correctly, protects agains such bugs\n// More info: https://www.nccgroup.trust/us/about-us/newsroom-and-events/blog/2018/november/smart-contract-insecurity-bad-arithmetic/\n\nimport \"./SafeMath.sol\";\nimport \"./IsOperational.sol\";\n\n/************************************************** */\n/* FlightSurety Smart Contract                      */\n/************************************************** */\ncontract FlightSuretyApp is IsOperational {\n    using SafeMath for uint256; // Allow SafeMath functions to be called for all uint256 types (similar to \"prototype\" in Javascript)\n\n    /********************************************************************************************/\n    /*                                       DATA VARIABLES                                     */\n    /********************************************************************************************/\n\n    // Flight status codees\n    uint8 private constant STATUS_CODE_UNKNOWN = 0;\n    uint8 private constant STATUS_CODE_ON_TIME = 10;\n    uint8 private constant STATUS_CODE_LATE_AIRLINE = 20;\n    uint8 private constant STATUS_CODE_LATE_WEATHER = 30;\n    uint8 private constant STATUS_CODE_LATE_TECHNICAL = 40;\n    uint8 private constant STATUS_CODE_LATE_OTHER = 50;\n\n    address _flightDataContractAddress;\n    FlightSuretyData flightSuretyData;\n\n\n    /********************************************************************************************/\n    /*                                       CONSTRUCTOR                                        */\n    /********************************************************************************************/\n\n    /**\n    * @dev Contract constructor\n    *\n    */\n    constructor(address flightDataContractAddress)\n    IsOperational(msg.sender, \"App\")\n    public\n    {\n        _flightDataContractAddress = flightDataContractAddress;\n        flightSuretyData = FlightSuretyData(flightDataContractAddress);\n    }\n\n   /**\n    * @dev Add an airline to the registration queue\n    *\n    */   \n    function registerAirline(string calldata airlineCode)\n    external\n    returns(bool success, uint256 votes)\n    {\n        flightSuretyData.registerAirline(msg.sender, airlineCode);\n        return (true, 1);\n    }\n\n\n   /**\n    * @dev Register a future flight for insuring.\n    *\n    */\n    function registerFlight(string calldata airlineCode, uint256 timestamp)\n    requireIsOperational\n    external\n    {\n        bytes32 flightKey =  getFlightKey(msg.sender, airlineCode, timestamp);\n        flightSuretyData.addFlight(msg.sender, flightKey, timestamp);\n    }\n    \n   /**\n    * @dev Called after oracle has updated flight status\n    *\n    */  \n    function processFlightStatus(address airline, string memory flight, uint256 timestamp, uint8 statusCode) internal\n    {\n        bytes32 flightKey = getFlightKey(airline, flight, timestamp);\n       flightSuretyData.updateFlightStatus(flightKey, timestamp, statusCode);\n    }\n\n    // Generate a request for oracles to fetch flight information\n    function fetchFlightStatus\n                        (\n                            address airline,\n                            string calldata flight,\n                            uint256 timestamp\n                        )\n                        external\n    {\n        uint8 index = getRandomIndex(msg.sender);\n\n        // Generate a unique key for storing the request\n        bytes32 key = keccak256(abi.encodePacked(index, airline, flight, timestamp));\n        oracleResponses[key] = ResponseInfo({\n                                                requester: msg.sender,\n                                                isOpen: true\n                                            });\n\n        emit OracleRequest(index, airline, flight, timestamp);\n    }\n\n    function fund()\n    public\n    payable\n    {\n        address(this).transfer(msg.value);\n        address(uint160(_flightDataContractAddress)).transfer(msg.value);\n    }\n\n\n// region ORACLE MANAGEMENT\n\n    // Incremented to add pseudo-randomness at various points\n    uint8 private nonce = 0;    \n\n    // Fee to be paid when registering oracle\n    uint256 public constant REGISTRATION_FEE = 1 ether;\n\n    // Number of oracles that must respond for valid status\n    uint256 private constant MIN_RESPONSES = 0;\n\n\n    struct Oracle {\n        bool isRegistered;\n        uint8[3] indexes;        \n    }\n\n    // Track all registered oracles\n    mapping(address => Oracle) private oracles;\n\n    // Model for responses from oracles\n    struct ResponseInfo {\n        address requester;                              // Account that requested status\n        bool isOpen;                                    // If open, oracle responses are accepted\n        mapping(uint8 => address[]) responses;          // Mapping key is the status code reported\n                                                        // This lets us group responses and identify\n                                                        // the response that majority of the oracles\n    }\n\n    // Track all oracle responses\n    // Key = hash(index, flight, timestamp)\n    mapping(bytes32 => ResponseInfo) private oracleResponses;\n\n    // Event fired each time an oracle submits a response\n    event FlightStatusInfo(address airline, string flight, uint256 timestamp, uint8 status);\n\n    event OracleReport(address airline, string flight, uint256 timestamp, uint8 status);\n\n    // Event fired when flight status request is submitted\n    // Oracles track this and if they have a matching index\n    // they fetch data and submit a response\n    event OracleRequest(uint8 index, address airline, string flight, uint256 timestamp);\n\n\n    // Register an oracle with the contract\n    function registerOracle()\n    external\n    payable\n    {\n        // Require registration fee\n        require(msg.value >= REGISTRATION_FEE, \"Registration fee is required\");\n\n        uint8[3] memory indexes = generateIndexes(msg.sender);\n\n        oracles[msg.sender] = Oracle({\n                                        isRegistered: true,\n                                        indexes: indexes\n                                    });\n    }\n\n    function getMyIndexes()\n    view\n    external\n    returns(uint8[3] memory)\n    {\n        require(oracles[msg.sender].isRegistered, \"Not registered as an oracle\");\n\n        return oracles[msg.sender].indexes;\n    }\n\n\n    // Called by oracle when a response is available to an outstanding request\n    // For the response to be accepted, there must be a pending request that is open\n    // and matches one of the three Indexes randomly assigned to the oracle at the\n    // time of registration (i.e. uninvited oracles are not welcome)\n    function submitOracleResponse(\n        uint8 index,\n        address airline,\n        string calldata flight,\n        uint256 timestamp,\n        uint8 statusCode)\n    external\n    {\n        require((oracles[msg.sender].indexes[0] == index) || (oracles[msg.sender].indexes[1] == index) || (oracles[msg.sender].indexes[2] == index), \"Index does not match oracle request\");\n\n\n        bytes32 key = keccak256(abi.encodePacked(index, airline, flight, timestamp)); \n        require(oracleResponses[key].isOpen, \"Flight or timestamp do not match oracle request\");\n\n        oracleResponses[key].responses[statusCode].push(msg.sender);\n\n        // Information isn't considered verified until at least MIN_RESPONSES\n        // oracles respond with the *** same *** information\n        emit OracleReport(airline, flight, timestamp, statusCode);\n        if (oracleResponses[key].responses[statusCode].length >= MIN_RESPONSES) {\n\n            emit FlightStatusInfo(airline, flight, timestamp, statusCode);\n\n            // Handle flight status as appropriate\n            processFlightStatus(airline, flight, timestamp, statusCode);\n        }\n    }\n\n\n    function getFlightKey(\n        address airline,\n        string memory flight,\n        uint256 timestamp)\n    internal\n    pure\n    returns(bytes32)\n    {\n        return keccak256(abi.encodePacked(airline, flight, timestamp));\n    }\n\n    // Returns array of three non-duplicating integers from 0-9\n    function generateIndexes(address account)\n    internal\n    returns(uint8[3] memory)\n    {\n        uint8[3] memory indexes;\n        indexes[0] = getRandomIndex(account);\n        \n        indexes[1] = indexes[0];\n        while(indexes[1] == indexes[0]) {\n            indexes[1] = getRandomIndex(account);\n        }\n\n        indexes[2] = indexes[1];\n        while((indexes[2] == indexes[0]) || (indexes[2] == indexes[1])) {\n            indexes[2] = getRandomIndex(account);\n        }\n\n        return indexes;\n    }\n\n    // Returns array of three non-duplicating integers from 0-9\n    function getRandomIndex(address account)\n                            internal\n                            returns (uint8)\n    {\n        uint8 maxValue = 10;\n\n        // Pseudo random number...the incrementing nonce adds variation\n        uint8 random = uint8(uint256(keccak256(abi.encodePacked(blockhash(block.number - nonce++), account))) % maxValue);\n\n        if (nonce > 250) {\n            nonce = 0;  // Can only fetch blockhashes for last 256 blocks so we adapt\n        }\n\n        return random;\n    }\n\n    function creditInsurees()\n    external\n    requireIsOperational\n    {\n        flightSuretyData.creditInsurees();\n    }\n\n    function payPassenger()\n    external\n    payable\n    requireIsOperational\n    {\n        flightSuretyData.pay(msg.sender);\n    }\n\n    function approveAirline(address airline)\n    requireIsOperational\n    external\n    {\n        flightSuretyData.approveAirline(msg.sender, airline);\n    }\n\n    function payRegistrationFee()\n    external\n    payable\n    {\n        require(msg.value >= 10 ether, \"Amount needed to register is 10 ether\");\n        require(address(this).balance > 10, \"Should have enough balance\");\n        address(uint160(_flightDataContractAddress)).transfer(10 ether);\n        flightSuretyData.payRegistrationFee(msg.sender);\n        msg.sender.transfer(msg.value - 10 ether);\n    }\n\n    // READ Data Functions\n\n    function getPassengerInsurances()\n    external\n    view\n    returns(bytes32[] memory)\n    {\n        return flightSuretyData.getPassengerInsurances(msg.sender);\n    }\n\n    function getPassengerInsurance(bytes32 flightIdentifier)\n    external\n    view\n    returns(uint256, uint8)\n    {\n        return flightSuretyData.getPassengerInsurance(msg.sender, flightIdentifier);\n    }\n\n    function getPassengerCredit()\n    external\n    view\n    returns(uint256)\n    {\n        return flightSuretyData.getPassengerCredit(msg.sender);\n    }\n\n\n    function getFlights()\n    external\n    view\n    returns(bytes32[] memory)\n    {\n        return flightSuretyData.getFlights();\n    }\n\n    function getFlightInfo(bytes32 flightIdentifier)\n    external\n    view\n    returns(address airlineAddress, bytes32, uint8, uint256)\n    {\n        return flightSuretyData.getFlightInfo(flightIdentifier);\n    }\n\n    function getAllAirlines()\n    external\n    view\n    returns(address[] memory)\n    {\n        return flightSuretyData.getAllAirlines();\n    }\n\n    function getAirlineInfo()\n    external\n    view\n    returns(address airlineAddress, uint8 status, string memory airlineCode, uint256 approvalsNeeded, uint256 totalApprovals)\n    {\n        return flightSuretyData.getAirlineInfo(msg.sender);\n    }\n\n    function claimPassengerInsurance(bytes32 flightKey)\n    external\n    requireIsOperational\n    {\n        flightSuretyData.claimInsurance(msg.sender, flightKey);\n    }\n\n    function buyInsurance(bytes32 flightKey, uint256 amount)\n    external\n    payable\n    {\n        flightSuretyData.buyInsuranceInternal(msg.sender, flightKey, amount);\n    }\n\n    function()\n    payable\n    external\n    {\n\n    }\n\n}\n\ncontract FlightSuretyData {\n\n    // credits all the funds for insurees\n    function creditInsurees() payable external;\n\n    // AIRLINES\n\n    // payouts a passenger remaining credit\n    function pay(address passengerAddress) payable external;\n    // register an airline\n    function registerAirline(address airlineAddress, string calldata airlineCode) external;\n    // add a flight for the airline\n    function addFlight(address airlineAddress, bytes32 flightIdentifier, uint256 timestamp) external;\n    // update the flight status\n    function updateFlightStatus(bytes32 flightIdentifier, uint256 timestamp, uint8 statusCode) external;\n    // check if the given flight is a valid flight\n    function isValidFlight(bytes32 flightIdentifier, uint256 timestamp) public view returns(bool);\n    // method to pay registration fee\n    function payRegistrationFee(address airlineAddress) external;\n    // an airline tries to approve another airline\n    function approveAirline(address airlineAddress, address newAirlineAddress) external;\n    // gets all flights keys\n    function getFlights() external view returns(bytes32[] memory);\n    // gets the info of a flight\n    function getFlightInfo(bytes32 flightIdentifier) external view returns(address, bytes32, uint8, uint256);\n    // get all airline addresses\n    function getAllAirlines() external view returns(address[] memory);\n    // get airline info\n    function getAirlineInfo(address airlineAddress) external view returns(address, uint8, string memory, uint256, uint256);\n\n    // PASSENGERS\n\n    // passenger can buy insurance using this method\n    function buyInsuranceInternal(address passengerAddress, bytes32 flightIdentifier, uint256 amount) external payable;\n    // passenger can claim insurance for a flight\n    function claimInsurance(address passengerAddress, bytes32 flightIdentifier) external;\n    // get all passenger insurances addresses\n    function getPassengerInsurances(address passengerAddress) external view returns(bytes32[] memory);\n    // gets a passenger insurance in details\n    function getPassengerInsurance(address passengerAddress, bytes32 flightIdentifier) external view returns(uint256, uint8);\n    // get outstanding amount for a passenger\n    function getPassengerCredit(address passengerAddress) external view returns(uint256);\n}\n\n",
  "sourcePath": "/Users/paagarwal/Documents/block-chain/projects/FlightSuretyV2/contracts/FlightSuretyApp.sol",
  "compiler": {
    "name": "solc",
    "version": "0.5.16+commit.9c3226ce.Emscripten.clang"
  },
  "schemaVersion": "3.1.0",
  "updatedAt": "2020-04-26T18:03:48.299Z",
  "networkType": "ethereum",
  "devdoc": {
    "methods": {
      "constructor": {
        "details": "Contract constructor    "
      },
      "registerAirline(string)": {
        "details": "Add an airline to the registration queue    "
      },
      "registerFlight(string,uint256)": {
        "details": "Register a future flight for insuring.    "
      }
    }
  },
  "userdoc": {
    "methods": {},
    "notice": "************************************************ "
  }
}