{
  "contractName": "IsOperational",
  "abi": [
    {
      "inputs": [
        {
          "internalType": "address",
          "name": "owner",
          "type": "address"
        },
        {
          "internalType": "string",
          "name": "_tag",
          "type": "string"
        }
      ],
      "payable": false,
      "stateMutability": "nonpayable",
      "type": "constructor"
    },
    {
      "constant": true,
      "inputs": [],
      "name": "isOperational",
      "outputs": [
        {
          "internalType": "bool",
          "name": "",
          "type": "bool"
        }
      ],
      "payable": false,
      "stateMutability": "view",
      "type": "function"
    },
    {
      "constant": false,
      "inputs": [
        {
          "internalType": "bool",
          "name": "mode",
          "type": "bool"
        }
      ],
      "name": "setOperatingStatus",
      "outputs": [],
      "payable": false,
      "stateMutability": "nonpayable",
      "type": "function"
    },
    {
      "constant": false,
      "inputs": [
        {
          "internalType": "address",
          "name": "newOwner",
          "type": "address"
        }
      ],
      "name": "setContractOwner",
      "outputs": [],
      "payable": false,
      "stateMutability": "nonpayable",
      "type": "function"
    },
    {
      "constant": false,
      "inputs": [
        {
          "internalType": "address",
          "name": "authorizedUser",
          "type": "address"
        },
        {
          "internalType": "bool",
          "name": "status",
          "type": "bool"
        }
      ],
      "name": "setAuthorizedUser",
      "outputs": [],
      "payable": false,
      "stateMutability": "nonpayable",
      "type": "function"
    }
  ],
  "bytecode": "0x608060405260016000806101000a81548160ff02191690831515021790555034801561002a57600080fd5b506040516108a33803806108a38339818101604052604081101561004d57600080fd5b81019080805190602001909291908051604051939291908464010000000082111561007757600080fd5b8382019150602082018581111561008d57600080fd5b82518660018202830111640100000000821117156100aa57600080fd5b8083526020830192505050908051906020019080838360005b838110156100de5780820151818401526020810190506100c3565b50505050905090810190601f16801561010b5780820380516001836020036101000a031916815260200191505b5060405250505081600060016101000a81548173ffffffffffffffffffffffffffffffffffffffff021916908373ffffffffffffffffffffffffffffffffffffffff1602179055508060019080519060200190610169929190610171565b505050610216565b828054600181600116156101000203166002900490600052602060002090601f016020900481019282601f106101b257805160ff19168380011785556101e0565b828001600101855582156101e0579182015b828111156101df5782518255916020019190600101906101c4565b5b5090506101ed91906101f1565b5090565b61021391905b8082111561020f5760008160009055506001016101f7565b5090565b90565b61067e806102256000396000f3fe608060405234801561001057600080fd5b506004361061004c5760003560e01c8063110466ed14610051578063a249225e14610081578063a34d42b8146100d1578063cd905dff14610115575b600080fd5b61007f6004803603602081101561006757600080fd5b81019080803515159060200190929190505050610137565b005b6100cf6004803603604081101561009757600080fd5b81019080803573ffffffffffffffffffffffffffffffffffffffff1690602001909291908035151590602001909291905050506102be565b005b610113600480360360208110156100e757600080fd5b81019080803573ffffffffffffffffffffffffffffffffffffffff169060200190929190505050610484565b005b61011d610633565b604051808215151515815260200191505060405180910390f35b600260003373ffffffffffffffffffffffffffffffffffffffff1673ffffffffffffffffffffffffffffffffffffffff16815260200190815260200160002060009054906101000a900460ff16806101dc57503373ffffffffffffffffffffffffffffffffffffffff16600060019054906101000a900473ffffffffffffffffffffffffffffffffffffffff1673ffffffffffffffffffffffffffffffffffffffff16145b6001906102a1576040517f08c379a000000000000000000000000000000000000000000000000000000000815260040180806020018281038252838181546001816001161561010002031660029004815260200191508054600181600116156101000203166002900480156102925780601f1061026757610100808354040283529160200191610292565b820191906000526020600020905b81548152906001019060200180831161027557829003601f168201915b50509250505060405180910390fd5b50806000806101000a81548160ff02191690831515021790555050565b600260003373ffffffffffffffffffffffffffffffffffffffff1673ffffffffffffffffffffffffffffffffffffffff16815260200190815260200160002060009054906101000a900460ff168061036357503373ffffffffffffffffffffffffffffffffffffffff16600060019054906101000a900473ffffffffffffffffffffffffffffffffffffffff1673ffffffffffffffffffffffffffffffffffffffff16145b600190610428576040517f08c379a000000000000000000000000000000000000000000000000000000000815260040180806020018281038252838181546001816001161561010002031660029004815260200191508054600181600116156101000203166002900480156104195780601f106103ee57610100808354040283529160200191610419565b820191906000526020600020905b8154815290600101906020018083116103fc57829003601f168201915b50509250505060405180910390fd5b5080600260008473ffffffffffffffffffffffffffffffffffffffff1673ffffffffffffffffffffffffffffffffffffffff16815260200190815260200160002060006101000a81548160ff0219169083151502179055505050565b600260003373ffffffffffffffffffffffffffffffffffffffff1673ffffffffffffffffffffffffffffffffffffffff16815260200190815260200160002060009054906101000a900460ff168061052957503373ffffffffffffffffffffffffffffffffffffffff16600060019054906101000a900473ffffffffffffffffffffffffffffffffffffffff1673ffffffffffffffffffffffffffffffffffffffff16145b6001906105ee576040517f08c379a000000000000000000000000000000000000000000000000000000000815260040180806020018281038252838181546001816001161561010002031660029004815260200191508054600181600116156101000203166002900480156105df5780601f106105b4576101008083540402835291602001916105df565b820191906000526020600020905b8154815290600101906020018083116105c257829003601f168201915b50509250505060405180910390fd5b5080600060016101000a81548173ffffffffffffffffffffffffffffffffffffffff021916908373ffffffffffffffffffffffffffffffffffffffff16021790555050565b60008060009054906101000a900460ff1690509056fea265627a7a7231582034ed3f7f04d22ee953bd391f937f4c210445af1d9095c04e1cfd05d6db50bc4d64736f6c63430005100032",
  "source": "pragma solidity >=0.4.21 <0.7.0;\n\ncontract IsOperational {\n    bool private _isOperational = true;\n    address private _contractOwner;\n    string tag;\n    mapping(address => bool) authorizedUsers;\n\n    constructor(address owner, string memory _tag)\n    public\n    {\n        _contractOwner = owner;\n        tag = _tag;\n    }\n\n    modifier requireContractOwner()\n    {\n        require(authorizedUsers[msg.sender] || _contractOwner == msg.sender, tag);\n        _;\n    }\n\n    modifier requireIsOperational()\n    {\n        require(_isOperational, \"Contract should be operational\");\n        _;\n    }\n\n    modifier isAuthorizedUser(address user)\n    {\n        require(authorizedUsers[user] || msg.sender == _contractOwner, \"Authorized users only\");\n        _;\n    }\n\n    function isOperational()\n    public\n    view\n    returns(bool)\n    {\n        return _isOperational;\n    }\n\n    function setOperatingStatus(bool mode)\n    requireContractOwner\n    public\n    {\n        _isOperational = mode;\n    }\n\n    function setContractOwner(address newOwner)\n    requireContractOwner\n    public\n    {\n        _contractOwner = newOwner;\n    }\n\n    function setAuthorizedUser(address authorizedUser, bool status)\n    requireContractOwner\n    public\n    {\n        authorizedUsers[authorizedUser] = status;\n    }\n}",
  "sourcePath": "/Users/paagarwal/Documents/block-chain/projects/FlightSuretyV2/contracts/IsOperational.sol",
  "compiler": {
    "name": "solc",
    "version": "0.5.16+commit.9c3226ce.Emscripten.clang"
  },
  "schemaVersion": "3.1.0",
  "updatedAt": "2020-04-26T17:58:34.086Z",
  "devdoc": {
    "methods": {}
  },
  "userdoc": {
    "methods": {}
  }
}