{
  "contractName": "FlightSuretyData",
  "abi": [
    {
      "inputs": [],
      "payable": false,
      "stateMutability": "nonpayable",
      "type": "constructor"
    },
    {
      "anonymous": false,
      "inputs": [
        {
          "indexed": false,
          "internalType": "address",
          "name": "airlineAddress",
          "type": "address"
        },
        {
          "indexed": false,
          "internalType": "address",
          "name": "approvingAirline",
          "type": "address"
        },
        {
          "indexed": false,
          "internalType": "bool",
          "name": "approved",
          "type": "bool"
        }
      ],
      "name": "AIRLINE_APPROVED",
      "type": "event"
    },
    {
      "anonymous": false,
      "inputs": [
        {
          "indexed": false,
          "internalType": "address",
          "name": "airlineAddress",
          "type": "address"
        }
      ],
      "name": "AIRLINE_FUNDED",
      "type": "event"
    },
    {
      "anonymous": false,
      "inputs": [
        {
          "indexed": false,
          "internalType": "address",
          "name": "airlineAddress",
          "type": "address"
        }
      ],
      "name": "AIRLINE_REGISTERED",
      "type": "event"
    },
    {
      "anonymous": false,
      "inputs": [
        {
          "indexed": false,
          "internalType": "address",
          "name": "airlineAddress",
          "type": "address"
        },
        {
          "indexed": false,
          "internalType": "bytes32",
          "name": "flightKey",
          "type": "bytes32"
        },
        {
          "indexed": false,
          "internalType": "uint256",
          "name": "timestamp",
          "type": "uint256"
        }
      ],
      "name": "FLIGHT_ADDED",
      "type": "event"
    },
    {
      "anonymous": false,
      "inputs": [
        {
          "indexed": false,
          "internalType": "address",
          "name": "airlineAddress",
          "type": "address"
        },
        {
          "indexed": false,
          "internalType": "bytes32",
          "name": "flightKey",
          "type": "bytes32"
        },
        {
          "indexed": false,
          "internalType": "bool",
          "name": "late",
          "type": "bool"
        }
      ],
      "name": "FLIGHT_STATUS_UPDATED",
      "type": "event"
    },
    {
      "anonymous": false,
      "inputs": [
        {
          "indexed": false,
          "internalType": "address",
          "name": "passengerAddress",
          "type": "address"
        },
        {
          "indexed": false,
          "internalType": "address",
          "name": "airlineAddress",
          "type": "address"
        },
        {
          "indexed": false,
          "internalType": "bytes32",
          "name": "flightKey",
          "type": "bytes32"
        },
        {
          "indexed": false,
          "internalType": "uint256",
          "name": "amount",
          "type": "uint256"
        }
      ],
      "name": "PASSENGER_INSURANCE_CLAIMED",
      "type": "event"
    },
    {
      "anonymous": false,
      "inputs": [
        {
          "indexed": false,
          "internalType": "address",
          "name": "passengerAddress",
          "type": "address"
        },
        {
          "indexed": false,
          "internalType": "address",
          "name": "airlineAddress",
          "type": "address"
        },
        {
          "indexed": false,
          "internalType": "bytes32",
          "name": "flightKey",
          "type": "bytes32"
        },
        {
          "indexed": false,
          "internalType": "uint256",
          "name": "amount",
          "type": "uint256"
        }
      ],
      "name": "PASSENGER_INSURANCE_PURCHASED",
      "type": "event"
    },
    {
      "anonymous": false,
      "inputs": [
        {
          "indexed": false,
          "internalType": "address",
          "name": "passengerAddress",
          "type": "address"
        },
        {
          "indexed": false,
          "internalType": "uint256",
          "name": "amount",
          "type": "uint256"
        }
      ],
      "name": "PASSENGER_PAYOUT",
      "type": "event"
    },
    {
      "payable": true,
      "stateMutability": "payable",
      "type": "fallback"
    },
    {
      "constant": true,
      "inputs": [],
      "name": "isOperational",
      "outputs": [
        {
          "internalType": "bool",
          "name": "",
          "type": "bool"
        }
      ],
      "payable": false,
      "stateMutability": "view",
      "type": "function"
    },
    {
      "constant": false,
      "inputs": [
        {
          "internalType": "address",
          "name": "authorizedUser",
          "type": "address"
        },
        {
          "internalType": "bool",
          "name": "status",
          "type": "bool"
        }
      ],
      "name": "setAuthorizedUser",
      "outputs": [],
      "payable": false,
      "stateMutability": "nonpayable",
      "type": "function"
    },
    {
      "constant": false,
      "inputs": [
        {
          "internalType": "address",
          "name": "newOwner",
          "type": "address"
        }
      ],
      "name": "setContractOwner",
      "outputs": [],
      "payable": false,
      "stateMutability": "nonpayable",
      "type": "function"
    },
    {
      "constant": false,
      "inputs": [
        {
          "internalType": "bool",
          "name": "mode",
          "type": "bool"
        }
      ],
      "name": "setOperatingStatus",
      "outputs": [],
      "payable": false,
      "stateMutability": "nonpayable",
      "type": "function"
    },
    {
      "constant": false,
      "inputs": [],
      "name": "creditInsurees",
      "outputs": [],
      "payable": false,
      "stateMutability": "nonpayable",
      "type": "function"
    },
    {
      "constant": false,
      "inputs": [
        {
          "internalType": "address",
          "name": "passengerAddress",
          "type": "address"
        }
      ],
      "name": "pay",
      "outputs": [],
      "payable": true,
      "stateMutability": "payable",
      "type": "function"
    },
    {
      "constant": false,
      "inputs": [
        {
          "internalType": "uint256",
          "name": "amount",
          "type": "uint256"
        }
      ],
      "name": "fund",
      "outputs": [],
      "payable": true,
      "stateMutability": "payable",
      "type": "function"
    },
    {
      "constant": false,
      "inputs": [
        {
          "internalType": "address",
          "name": "airlineAddress",
          "type": "address"
        },
        {
          "internalType": "string",
          "name": "airlineCode",
          "type": "string"
        }
      ],
      "name": "registerAirline",
      "outputs": [],
      "payable": false,
      "stateMutability": "nonpayable",
      "type": "function"
    },
    {
      "constant": false,
      "inputs": [
        {
          "internalType": "address",
          "name": "airlineAddress",
          "type": "address"
        },
        {
          "internalType": "bytes32",
          "name": "flightIdentifier",
          "type": "bytes32"
        },
        {
          "internalType": "uint256",
          "name": "timestamp",
          "type": "uint256"
        }
      ],
      "name": "addFlight",
      "outputs": [],
      "payable": false,
      "stateMutability": "nonpayable",
      "type": "function"
    },
    {
      "constant": false,
      "inputs": [
        {
          "internalType": "bytes32",
          "name": "flightIdentifier",
          "type": "bytes32"
        },
        {
          "internalType": "uint256",
          "name": "timestamp",
          "type": "uint256"
        },
        {
          "internalType": "uint8",
          "name": "statusCode",
          "type": "uint8"
        }
      ],
      "name": "updateFlightStatus",
      "outputs": [],
      "payable": false,
      "stateMutability": "nonpayable",
      "type": "function"
    },
    {
      "constant": true,
      "inputs": [
        {
          "internalType": "bytes32",
          "name": "flightIdentifier",
          "type": "bytes32"
        },
        {
          "internalType": "uint256",
          "name": "timestamp",
          "type": "uint256"
        }
      ],
      "name": "isValidFlight",
      "outputs": [
        {
          "internalType": "bool",
          "name": "",
          "type": "bool"
        }
      ],
      "payable": false,
      "stateMutability": "view",
      "type": "function"
    },
    {
      "constant": false,
      "inputs": [
        {
          "internalType": "address",
          "name": "airlineAddress",
          "type": "address"
        }
      ],
      "name": "payRegistrationFee",
      "outputs": [],
      "payable": false,
      "stateMutability": "nonpayable",
      "type": "function"
    },
    {
      "constant": false,
      "inputs": [
        {
          "internalType": "address",
          "name": "airlineAddress",
          "type": "address"
        },
        {
          "internalType": "address",
          "name": "newAirlineAddress",
          "type": "address"
        }
      ],
      "name": "approveAirline",
      "outputs": [],
      "payable": false,
      "stateMutability": "nonpayable",
      "type": "function"
    },
    {
      "constant": true,
      "inputs": [],
      "name": "getFlights",
      "outputs": [
        {
          "internalType": "bytes32[]",
          "name": "",
          "type": "bytes32[]"
        }
      ],
      "payable": false,
      "stateMutability": "view",
      "type": "function"
    },
    {
      "constant": true,
      "inputs": [
        {
          "internalType": "bytes32",
          "name": "flightIdentifier",
          "type": "bytes32"
        }
      ],
      "name": "getFlightInfo",
      "outputs": [
        {
          "internalType": "address",
          "name": "",
          "type": "address"
        },
        {
          "internalType": "bytes32",
          "name": "",
          "type": "bytes32"
        },
        {
          "internalType": "uint8",
          "name": "",
          "type": "uint8"
        },
        {
          "internalType": "uint256",
          "name": "",
          "type": "uint256"
        }
      ],
      "payable": false,
      "stateMutability": "view",
      "type": "function"
    },
    {
      "constant": true,
      "inputs": [],
      "name": "getAllAirlines",
      "outputs": [
        {
          "internalType": "address[]",
          "name": "",
          "type": "address[]"
        }
      ],
      "payable": false,
      "stateMutability": "view",
      "type": "function"
    },
    {
      "constant": true,
      "inputs": [
        {
          "internalType": "address",
          "name": "airlineAddress",
          "type": "address"
        }
      ],
      "name": "getAirlineInfo",
      "outputs": [
        {
          "internalType": "address",
          "name": "",
          "type": "address"
        },
        {
          "internalType": "uint8",
          "name": "",
          "type": "uint8"
        },
        {
          "internalType": "string",
          "name": "",
          "type": "string"
        },
        {
          "internalType": "uint256",
          "name": "",
          "type": "uint256"
        },
        {
          "internalType": "uint256",
          "name": "",
          "type": "uint256"
        }
      ],
      "payable": false,
      "stateMutability": "view",
      "type": "function"
    },
    {
      "constant": false,
      "inputs": [
        {
          "internalType": "address",
          "name": "passengerAddress",
          "type": "address"
        },
        {
          "internalType": "bytes32",
          "name": "flightIdentifier",
          "type": "bytes32"
        },
        {
          "internalType": "uint256",
          "name": "amount",
          "type": "uint256"
        }
      ],
      "name": "buyInsuranceInternal",
      "outputs": [],
      "payable": true,
      "stateMutability": "payable",
      "type": "function"
    },
    {
      "constant": false,
      "inputs": [
        {
          "internalType": "address",
          "name": "passengerAddress",
          "type": "address"
        },
        {
          "internalType": "bytes32",
          "name": "flightIdentifier",
          "type": "bytes32"
        }
      ],
      "name": "claimInsurance",
      "outputs": [],
      "payable": false,
      "stateMutability": "nonpayable",
      "type": "function"
    },
    {
      "constant": true,
      "inputs": [
        {
          "internalType": "address",
          "name": "passengerAddress",
          "type": "address"
        }
      ],
      "name": "getPassengerInsurances",
      "outputs": [
        {
          "internalType": "bytes32[]",
          "name": "",
          "type": "bytes32[]"
        }
      ],
      "payable": false,
      "stateMutability": "view",
      "type": "function"
    },
    {
      "constant": true,
      "inputs": [
        {
          "internalType": "address",
          "name": "passengerAddress",
          "type": "address"
        },
        {
          "internalType": "bytes32",
          "name": "flightIdentifier",
          "type": "bytes32"
        }
      ],
      "name": "getPassengerInsurance",
      "outputs": [
        {
          "internalType": "uint256",
          "name": "",
          "type": "uint256"
        },
        {
          "internalType": "uint8",
          "name": "",
          "type": "uint8"
        }
      ],
      "payable": false,
      "stateMutability": "view",
      "type": "function"
    },
    {
      "constant": true,
      "inputs": [
        {
          "internalType": "address",
          "name": "passengerAddress",
          "type": "address"
        }
      ],
      "name": "getPassengerCredit",
      "outputs": [
        {
          "internalType": "uint256",
          "name": "",
          "type": "uint256"
        }
      ],
      "payable": false,
      "stateMutability": "view",
      "type": "function"
    }
  ],
  "bytecode": "0x608060405260016000806101000a81548160ff02191690831515021790555060006008553480156200003057600080fd5b50336040518060400160405280600481526020017f446174610000000000000000000000000000000000000000000000000000000081525081600060016101000a81548173ffffffffffffffffffffffffffffffffffffffff021916908373ffffffffffffffffffffffffffffffffffffffff1602179055508060019080519060200190620000c1929190620000ca565b50505062000179565b828054600181600116156101000203166002900490600052602060002090601f016020900481019282601f106200010d57805160ff19168380011785556200013e565b828001600101855582156200013e579182015b828111156200013d57825182559160200191906001019062000120565b5b5090506200014d919062000151565b5090565b6200017691905b808211156200017257600081600090555060010162000158565b5090565b90565b61433b80620001896000396000f3fe6080604052600436106101355760003560e01c806392ee52c2116100ab578063ca1d209d1161006f578063ca1d209d146107e0578063cd905dff1461080e578063d800fd241461083d578063e9c0d4491461088f578063ee38a749146108f4578063f505d2731461099a57610135565b806392ee52c2146105c357806394c260ee14610620578063a249225e1461068c578063a34d42b8146106e9578063a68645331461073a57610135565b806331d8050f116100fd57806331d8050f1461030e57806336cee4841461035f5780634cc7dbee146103765780636ec70680146103e2578063720c7cbb1461043a57806372dd8bcb1461055257610135565b806305b64e98146101375780630c11dedd1461019c578063110466ed146101e057806324c534cc1461021d5780632c229715146102b3575b005b34801561014357600080fd5b506101866004803603602081101561015a57600080fd5b81019080803573ffffffffffffffffffffffffffffffffffffffff169060200190929190505050610a16565b6040518082815260200191505060405180910390f35b6101de600480360360208110156101b257600080fd5b81019080803573ffffffffffffffffffffffffffffffffffffffff169060200190929190505050610a5f565b005b3480156101ec57600080fd5b5061021b6004803603602081101561020357600080fd5b81019080803515159060200190929190505050610da6565b005b34801561022957600080fd5b506102566004803603602081101561024057600080fd5b8101908080359060200190929190505050610f2d565b604051808573ffffffffffffffffffffffffffffffffffffffff1673ffffffffffffffffffffffffffffffffffffffff1681526020018481526020018360ff1660ff16815260200182815260200194505050505060405180910390f35b3480156102bf57600080fd5b5061030c600480360360408110156102d657600080fd5b81019080803573ffffffffffffffffffffffffffffffffffffffff16906020019092919080359060200190929190505050610f9b565b005b34801561031a57600080fd5b5061035d6004803603602081101561033157600080fd5b81019080803573ffffffffffffffffffffffffffffffffffffffff1690602001909291905050506113ca565b005b34801561036b57600080fd5b50610374611556565b005b34801561038257600080fd5b5061038b611b31565b6040518080602001828103825283818151815260200191508051906020019060200280838360005b838110156103ce5780820151818401526020810190506103b3565b505050509050019250505060405180910390f35b610438600480360360608110156103f857600080fd5b81019080803573ffffffffffffffffffffffffffffffffffffffff1690602001909291908035906020019092919080359060200190929190505050611bbf565b005b34801561044657600080fd5b506104896004803603602081101561045d57600080fd5b81019080803573ffffffffffffffffffffffffffffffffffffffff16906020019092919050505061214f565b604051808673ffffffffffffffffffffffffffffffffffffffff1673ffffffffffffffffffffffffffffffffffffffff1681526020018560ff1660ff16815260200180602001848152602001838152602001828103825285818151815260200191508051906020019080838360005b838110156105135780820151818401526020810190506104f8565b50505050905090810190601f1680156105405780820380516001836020036101000a031916815260200191505b50965050505050505060405180910390f35b34801561055e57600080fd5b506105c16004803603604081101561057557600080fd5b81019080803573ffffffffffffffffffffffffffffffffffffffff169060200190929190803573ffffffffffffffffffffffffffffffffffffffff16906020019092919050505061228f565b005b3480156105cf57600080fd5b50610606600480360360408110156105e657600080fd5b8101908080359060200190929190803590602001909291905050506128b2565b604051808215151515815260200191505060405180910390f35b34801561062c57600080fd5b506106356128d5565b6040518080602001828103825283818151815260200191508051906020019060200280838360005b8381101561067857808201518184015260208101905061065d565b505050509050019250505060405180910390f35b34801561069857600080fd5b506106e7600480360360408110156106af57600080fd5b81019080803573ffffffffffffffffffffffffffffffffffffffff16906020019092919080351515906020019092919050505061292d565b005b3480156106f557600080fd5b506107386004803603602081101561070c57600080fd5b81019080803573ffffffffffffffffffffffffffffffffffffffff169060200190929190505050612af3565b005b34801561074657600080fd5b506107896004803603602081101561075d57600080fd5b81019080803573ffffffffffffffffffffffffffffffffffffffff169060200190929190505050612ca2565b6040518080602001828103825283818151815260200191508051906020019060200280838360005b838110156107cc5780820151818401526020810190506107b1565b505050509050019250505060405180910390f35b61080c600480360360208110156107f657600080fd5b8101908080359060200190929190505050612d39565b005b34801561081a57600080fd5b50610823612f6f565b604051808215151515815260200191505060405180910390f35b34801561084957600080fd5b5061088d6004803603606081101561086057600080fd5b810190808035906020019092919080359060200190929190803560ff169060200190929190505050612f85565b005b34801561089b57600080fd5b506108f2600480360360608110156108b257600080fd5b81019080803573ffffffffffffffffffffffffffffffffffffffff16906020019092919080359060200190929190803590602001909291905050506132d4565b005b34801561090057600080fd5b506109986004803603604081101561091757600080fd5b81019080803573ffffffffffffffffffffffffffffffffffffffff1690602001909291908035906020019064010000000081111561095457600080fd5b82018360208201111561096657600080fd5b8035906020019184600183028401116401000000008311171561098857600080fd5b9091929391929390505050613707565b005b3480156109a657600080fd5b506109f3600480360360408110156109bd57600080fd5b81019080803573ffffffffffffffffffffffffffffffffffffffff16906020019092919080359060200190929190505050613df9565b604051808381526020018260ff1660ff1681526020019250505060405180910390f35b6000600a60008373ffffffffffffffffffffffffffffffffffffffff1673ffffffffffffffffffffffffffffffffffffffff168152602001908152602001600020549050919050565b6000809054906101000a900460ff16610ae0576040517f08c379a000000000000000000000000000000000000000000000000000000000815260040180806020018281038252601e8152602001807f436f6e74726163742073686f756c64206265206f7065726174696f6e616c000081525060200191505060405180910390fd5b600260003373ffffffffffffffffffffffffffffffffffffffff1673ffffffffffffffffffffffffffffffffffffffff16815260200190815260200160002060009054906101000a900460ff1680610b8557503373ffffffffffffffffffffffffffffffffffffffff16600060019054906101000a900473ffffffffffffffffffffffffffffffffffffffff1673ffffffffffffffffffffffffffffffffffffffff16145b600190610c4a576040517f08c379a00000000000000000000000000000000000000000000000000000000081526004018080602001828103825283818154600181600116156101000203166002900481526020019150805460018160011615610100020316600290048015610c3b5780601f10610c1057610100808354040283529160200191610c3b565b820191906000526020600020905b815481529060010190602001808311610c1e57829003601f168201915b50509250505060405180910390fd5b506000600a60008373ffffffffffffffffffffffffffffffffffffffff1673ffffffffffffffffffffffffffffffffffffffff1681526020019081526020016000205411610ce3576040517f08c379a000000000000000000000000000000000000000000000000000000000815260040180806020018281038252602581526020018061420e6025913960400191505060405180910390fd5b6000610cee82613e73565b90508173ffffffffffffffffffffffffffffffffffffffff166108fc829081150290604051600060405180830381858888f19350505050158015610d36573d6000803e3d6000fd5b507fcda28c5d5049ef4d8f1e97b810b463dc19b5b2162b11d46eccaa5337e6a1a1dc8282604051808373ffffffffffffffffffffffffffffffffffffffff1673ffffffffffffffffffffffffffffffffffffffff1681526020018281526020019250505060405180910390a15050565b600260003373ffffffffffffffffffffffffffffffffffffffff1673ffffffffffffffffffffffffffffffffffffffff16815260200190815260200160002060009054906101000a900460ff1680610e4b57503373ffffffffffffffffffffffffffffffffffffffff16600060019054906101000a900473ffffffffffffffffffffffffffffffffffffffff1673ffffffffffffffffffffffffffffffffffffffff16145b600190610f10576040517f08c379a00000000000000000000000000000000000000000000000000000000081526004018080602001828103825283818154600181600116156101000203166002900481526020019150805460018160011615610100020316600290048015610f015780601f10610ed657610100808354040283529160200191610f01565b820191906000526020600020905b815481529060010190602001808311610ee457829003601f168201915b50509250505060405180910390fd5b50806000806101000a81548160ff02191690831515021790555050565b60008060008060006003600087815260200190815260200160002090508060000160009054906101000a900473ffffffffffffffffffffffffffffffffffffffff1681600101548260020160009054906101000a900460ff1683600301549450945094509450509193509193565b6000809054906101000a900460ff1661101c576040517f08c379a000000000000000000000000000000000000000000000000000000000815260040180806020018281038252601e8152602001807f436f6e74726163742073686f756c64206265206f7065726174696f6e616c000081525060200191505060405180910390fd5b600260003373ffffffffffffffffffffffffffffffffffffffff1673ffffffffffffffffffffffffffffffffffffffff16815260200190815260200160002060009054906101000a900460ff16806110c157503373ffffffffffffffffffffffffffffffffffffffff16600060019054906101000a900473ffffffffffffffffffffffffffffffffffffffff1673ffffffffffffffffffffffffffffffffffffffff16145b600190611186576040517f08c379a000000000000000000000000000000000000000000000000000000000815260040180806020018281038252838181546001816001161561010002031660029004815260200191508054600181600116156101000203166002900480156111775780601f1061114c57610100808354040283529160200191611177565b820191906000526020600020905b81548152906001019060200180831161115a57829003601f168201915b50509250505060405180910390fd5b5081816000600960008473ffffffffffffffffffffffffffffffffffffffff1673ffffffffffffffffffffffffffffffffffffffff16815260200190815260200160002060008381526020019081526020016000206001015411611235576040517f08c379a000000000000000000000000000000000000000000000000000000000815260040180806020018281038252602381526020018061429b6023913960400191505060405180910390fd5b60146003600085815260200190815260200160002060020160009054906101000a900460ff1660ff1614156113c45760006112ce6112c7600960008873ffffffffffffffffffffffffffffffffffffffff1673ffffffffffffffffffffffffffffffffffffffff1681526020019081526020016000206000878152602001908152602001600020600101546003613f06565b6002613f8c565b905080600a60008773ffffffffffffffffffffffffffffffffffffffff1673ffffffffffffffffffffffffffffffffffffffff1681526020019081526020016000205401600a60008773ffffffffffffffffffffffffffffffffffffffff1673ffffffffffffffffffffffffffffffffffffffff168152602001908152602001600020819055506002600960008773ffffffffffffffffffffffffffffffffffffffff1673ffffffffffffffffffffffffffffffffffffffff168152602001908152602001600020600086815260200190815260200160002060020160006101000a81548160ff021916908360ff160217905550505b50505050565b806002600560008373ffffffffffffffffffffffffffffffffffffffff1673ffffffffffffffffffffffffffffffffffffffff16815260200190815260200160002060000160149054906101000a900460ff1660ff1614611493576040517f08c379a00000000000000000000000000000000000000000000000000000000081526004018080602001828103825260188152602001807f4169726c696e65206d75737420626520617070726f766564000000000000000081525060200191505060405180910390fd5b6003600560008473ffffffffffffffffffffffffffffffffffffffff1673ffffffffffffffffffffffffffffffffffffffff16815260200190815260200160002060000160146101000a81548160ff021916908360ff1602179055507f0872d1bd5adc4825d5dd7dfe9422b1f3afaeb7058b8b408af16d478d55a1748682604051808273ffffffffffffffffffffffffffffffffffffffff1673ffffffffffffffffffffffffffffffffffffffff16815260200191505060405180910390a15050565b6000809054906101000a900460ff166115d7576040517f08c379a000000000000000000000000000000000000000000000000000000000815260040180806020018281038252601e8152602001807f436f6e74726163742073686f756c64206265206f7065726174696f6e616c000081525060200191505060405180910390fd5b600260003373ffffffffffffffffffffffffffffffffffffffff1673ffffffffffffffffffffffffffffffffffffffff16815260200190815260200160002060009054906101000a900460ff168061167c57503373ffffffffffffffffffffffffffffffffffffffff16600060019054906101000a900473ffffffffffffffffffffffffffffffffffffffff1673ffffffffffffffffffffffffffffffffffffffff16145b600190611741576040517f08c379a000000000000000000000000000000000000000000000000000000000815260040180806020018281038252838181546001816001161561010002031660029004815260200191508054600181600116156101000203166002900480156117325780601f1061170757610100808354040283529160200191611732565b820191906000526020600020905b81548152906001019060200180831161171557829003601f168201915b50509250505060405180910390fd5b5060008090505b6004805490508160ff161015611b2e5760006003600060048460ff168154811061176e57fe5b90600052602060002001548152602001908152602001600020905060008160020160009054906101000a900460ff1660ff1614611b205760008090505b600d805490508160ff161015611b1e576000600d8260ff16815481106117cd57fe5b9060005260206000200160009054906101000a900473ffffffffffffffffffffffffffffffffffffffff16905060148360020160009054906101000a900460ff1660ff1614801561188b57506000600960008373ffffffffffffffffffffffffffffffffffffffff1673ffffffffffffffffffffffffffffffffffffffff168152602001908152602001600020600060048760ff168154811061186c57fe5b9060005260206000200154815260200190815260200160002060010154115b15611a8857600061191461190d600960008573ffffffffffffffffffffffffffffffffffffffff1673ffffffffffffffffffffffffffffffffffffffff168152602001908152602001600020600060048960ff16815481106118e957fe5b90600052602060002001548152602001908152602001600020600101546003613f06565b6002613f8c565b90506000811161196f576040517f08c379a00000000000000000000000000000000000000000000000000000000081526004018080602001828103825260258152602001806142336025913960400191505060405180910390fd5b6119b8600a60008473ffffffffffffffffffffffffffffffffffffffff1673ffffffffffffffffffffffffffffffffffffffff1681526020019081526020016000205482613fd6565b600a60008473ffffffffffffffffffffffffffffffffffffffff1673ffffffffffffffffffffffffffffffffffffffff168152602001908152602001600020819055506002600960008473ffffffffffffffffffffffffffffffffffffffff1673ffffffffffffffffffffffffffffffffffffffff168152602001908152602001600020600060048860ff1681548110611a4e57fe5b9060005260206000200154815260200190815260200160002060020160006101000a81548160ff021916908360ff16021790555050611b10565b6001600960008373ffffffffffffffffffffffffffffffffffffffff1673ffffffffffffffffffffffffffffffffffffffff168152602001908152602001600020600060048760ff1681548110611adb57fe5b9060005260206000200154815260200190815260200160002060020160006101000a81548160ff021916908360ff1602179055505b5080806001019150506117ab565b505b508080600101915050611748565b50565b60606006805480602002602001604051908101604052809291908181526020018280548015611bb557602002820191906000526020600020905b8160009054906101000a900473ffffffffffffffffffffffffffffffffffffffff1673ffffffffffffffffffffffffffffffffffffffff1681526020019060010190808311611b6b575b5050505050905090565b6000809054906101000a900460ff16611c40576040517f08c379a000000000000000000000000000000000000000000000000000000000815260040180806020018281038252601e8152602001807f436f6e74726163742073686f756c64206265206f7065726174696f6e616c000081525060200191505060405180910390fd5b600260003373ffffffffffffffffffffffffffffffffffffffff1673ffffffffffffffffffffffffffffffffffffffff16815260200190815260200160002060009054906101000a900460ff1680611ce557503373ffffffffffffffffffffffffffffffffffffffff16600060019054906101000a900473ffffffffffffffffffffffffffffffffffffffff1673ffffffffffffffffffffffffffffffffffffffff16145b600190611daa576040517f08c379a00000000000000000000000000000000000000000000000000000000081526004018080602001828103825283818154600181600116156101000203166002900481526020019150805460018160011615610100020316600290048015611d9b5780601f10611d7057610100808354040283529160200191611d9b565b820191906000526020600020905b815481529060010190602001808311611d7e57829003601f168201915b50509250505060405180910390fd5b5082826000600960008473ffffffffffffffffffffffffffffffffffffffff1673ffffffffffffffffffffffffffffffffffffffff16815260200190815260200160002060008381526020019081526020016000206001015414611e76576040517f08c379a000000000000000000000000000000000000000000000000000000000815260040180806020018281038252601f8152602001807f63616e206e6f7420627579206475706c696361746520696e737572616e63650081525060200191505060405180910390fd5b8260008111611ed0576040517f08c379a00000000000000000000000000000000000000000000000000000000081526004018080602001828103825260228152602001806142796022913960400191505060405180910390fd5b670de0b6b3a76400008110611f30576040517f08c379a00000000000000000000000000000000000000000000000000000000081526004018080602001828103825260288152602001806142be6028913960400191505060405180910390fd5b3073ffffffffffffffffffffffffffffffffffffffff166108fc859081150290604051600060405180830381858888f19350505050158015611f76573d6000803e3d6000fd5b5060001515600c60008873ffffffffffffffffffffffffffffffffffffffff1673ffffffffffffffffffffffffffffffffffffffff16815260200190815260200160002060009054906101000a900460ff161515141561203757600d8690806001815401808255809150509060018203906000526020600020016000909192909190916101000a81548173ffffffffffffffffffffffffffffffffffffffff021916908373ffffffffffffffffffffffffffffffffffffffff160217905550505b6040518060600160405280868152602001858152602001600060ff16815250600960008873ffffffffffffffffffffffffffffffffffffffff1673ffffffffffffffffffffffffffffffffffffffff1681526020019081526020016000206000878152602001908152602001600020600082015181600001556020820151816001015560408201518160020160006101000a81548160ff021916908360ff160217905550905050600b60008773ffffffffffffffffffffffffffffffffffffffff1673ffffffffffffffffffffffffffffffffffffffff168152602001908152602001600020859080600181540180825580915050906001820390600052602060002001600090919290919091505550505050505050565b60008060606000806000600560008873ffffffffffffffffffffffffffffffffffffffff1673ffffffffffffffffffffffffffffffffffffffff16815260200190815260200160002090508060000160009054906101000a900473ffffffffffffffffffffffffffffffffffffffff168160000160149054906101000a900460ff168260010183600201548460030154828054600181600116156101000203166002900480601f0160208091040260200160405190810160405280929190818152602001828054600181600116156101000203166002900480156122745780601f1061224957610100808354040283529160200191612274565b820191906000526020600020905b81548152906001019060200180831161225757829003601f168201915b50505050509250955095509550955095505091939590929450565b6000809054906101000a900460ff16612310576040517f08c379a000000000000000000000000000000000000000000000000000000000815260040180806020018281038252601e8152602001807f436f6e74726163742073686f756c64206265206f7065726174696f6e616c000081525060200191505060405180910390fd5b600260003373ffffffffffffffffffffffffffffffffffffffff1673ffffffffffffffffffffffffffffffffffffffff16815260200190815260200160002060009054906101000a900460ff16806123b557503373ffffffffffffffffffffffffffffffffffffffff16600060019054906101000a900473ffffffffffffffffffffffffffffffffffffffff1673ffffffffffffffffffffffffffffffffffffffff16145b60019061247a576040517f08c379a0000000000000000000000000000000000000000000000000000000008152600401808060200182810382528381815460018160011615610100020316600290048152602001915080546001816001161561010002031660029004801561246b5780601f106124405761010080835404028352916020019161246b565b820191906000526020600020905b81548152906001019060200180831161244e57829003601f168201915b50509250505060405180910390fd5b50816003600560008373ffffffffffffffffffffffffffffffffffffffff1673ffffffffffffffffffffffffffffffffffffffff16815260200190815260200160002060000160149054906101000a900460ff1660ff1614612544576040517f08c379a00000000000000000000000000000000000000000000000000000000081526004018080602001828103825260168152602001807f4169726c696e65206d7573742062652066756e6465640000000000000000000081525060200191505060405180910390fd5b828260001515600760008373ffffffffffffffffffffffffffffffffffffffff1673ffffffffffffffffffffffffffffffffffffffff16815260200190815260200160002060008473ffffffffffffffffffffffffffffffffffffffff1673ffffffffffffffffffffffffffffffffffffffff16815260200190815260200160002060009054906101000a900460ff1615151461262c576040517f08c379a00000000000000000000000000000000000000000000000000000000081526004018080602001828103825260218152602001806142e66021913960400191505060405180910390fd5b6001600560008673ffffffffffffffffffffffffffffffffffffffff1673ffffffffffffffffffffffffffffffffffffffff1681526020019081526020016000206003015401600560008673ffffffffffffffffffffffffffffffffffffffff1673ffffffffffffffffffffffffffffffffffffffff16815260200190815260200160002060030181905550600560008573ffffffffffffffffffffffffffffffffffffffff1673ffffffffffffffffffffffffffffffffffffffff16815260200190815260200160002060020154600560008673ffffffffffffffffffffffffffffffffffffffff1673ffffffffffffffffffffffffffffffffffffffff16815260200190815260200160002060030154106127b3576002600560008673ffffffffffffffffffffffffffffffffffffffff1673ffffffffffffffffffffffffffffffffffffffff16815260200190815260200160002060000160146101000a81548160ff021916908360ff1602179055506127ac6008546001613fd6565b6008819055505b7f66fed4c377331ab0614602ea289bafa17eb0d2dc2c777880187554cb41e8696585866002600560008973ffffffffffffffffffffffffffffffffffffffff1673ffffffffffffffffffffffffffffffffffffffff16815260200190815260200160002060000160149054906101000a900460ff1660ff1614604051808473ffffffffffffffffffffffffffffffffffffffff1673ffffffffffffffffffffffffffffffffffffffff1681526020018373ffffffffffffffffffffffffffffffffffffffff1673ffffffffffffffffffffffffffffffffffffffff16815260200182151515158152602001935050505060405180910390a15050505050565b600081600360008581526020019081526020016000206003015414905092915050565b6060600480548060200260200160405190810160405280929190818152602001828054801561292357602002820191906000526020600020905b81548152602001906001019080831161290f575b5050505050905090565b600260003373ffffffffffffffffffffffffffffffffffffffff1673ffffffffffffffffffffffffffffffffffffffff16815260200190815260200160002060009054906101000a900460ff16806129d257503373ffffffffffffffffffffffffffffffffffffffff16600060019054906101000a900473ffffffffffffffffffffffffffffffffffffffff1673ffffffffffffffffffffffffffffffffffffffff16145b600190612a97576040517f08c379a00000000000000000000000000000000000000000000000000000000081526004018080602001828103825283818154600181600116156101000203166002900481526020019150805460018160011615610100020316600290048015612a885780601f10612a5d57610100808354040283529160200191612a88565b820191906000526020600020905b815481529060010190602001808311612a6b57829003601f168201915b50509250505060405180910390fd5b5080600260008473ffffffffffffffffffffffffffffffffffffffff1673ffffffffffffffffffffffffffffffffffffffff16815260200190815260200160002060006101000a81548160ff0219169083151502179055505050565b600260003373ffffffffffffffffffffffffffffffffffffffff1673ffffffffffffffffffffffffffffffffffffffff16815260200190815260200160002060009054906101000a900460ff1680612b9857503373ffffffffffffffffffffffffffffffffffffffff16600060019054906101000a900473ffffffffffffffffffffffffffffffffffffffff1673ffffffffffffffffffffffffffffffffffffffff16145b600190612c5d576040517f08c379a00000000000000000000000000000000000000000000000000000000081526004018080602001828103825283818154600181600116156101000203166002900481526020019150805460018160011615610100020316600290048015612c4e5780601f10612c2357610100808354040283529160200191612c4e565b820191906000526020600020905b815481529060010190602001808311612c3157829003601f168201915b50509250505060405180910390fd5b5080600060016101000a81548173ffffffffffffffffffffffffffffffffffffffff021916908373ffffffffffffffffffffffffffffffffffffffff16021790555050565b6060600b60008373ffffffffffffffffffffffffffffffffffffffff1673ffffffffffffffffffffffffffffffffffffffff168152602001908152602001600020805480602002602001604051908101604052809291908181526020018280548015612d2d57602002820191906000526020600020905b815481526020019060010190808311612d19575b50505050509050919050565b6000809054906101000a900460ff16612dba576040517f08c379a000000000000000000000000000000000000000000000000000000000815260040180806020018281038252601e8152602001807f436f6e74726163742073686f756c64206265206f7065726174696f6e616c000081525060200191505060405180910390fd5b600260003373ffffffffffffffffffffffffffffffffffffffff1673ffffffffffffffffffffffffffffffffffffffff16815260200190815260200160002060009054906101000a900460ff1680612e5f57503373ffffffffffffffffffffffffffffffffffffffff16600060019054906101000a900473ffffffffffffffffffffffffffffffffffffffff1673ffffffffffffffffffffffffffffffffffffffff16145b600190612f24576040517f08c379a00000000000000000000000000000000000000000000000000000000081526004018080602001828103825283818154600181600116156101000203166002900481526020019150805460018160011615610100020316600290048015612f155780601f10612eea57610100808354040283529160200191612f15565b820191906000526020600020905b815481529060010190602001808311612ef857829003601f168201915b50509250505060405180910390fd5b503073ffffffffffffffffffffffffffffffffffffffff166108fc829081150290604051600060405180830381858888f19350505050158015612f6b573d6000803e3d6000fd5b5050565b60008060009054906101000a900460ff16905090565b6000809054906101000a900460ff16613006576040517f08c379a000000000000000000000000000000000000000000000000000000000815260040180806020018281038252601e8152602001807f436f6e74726163742073686f756c64206265206f7065726174696f6e616c000081525060200191505060405180910390fd5b600260003373ffffffffffffffffffffffffffffffffffffffff1673ffffffffffffffffffffffffffffffffffffffff16815260200190815260200160002060009054906101000a900460ff16806130ab57503373ffffffffffffffffffffffffffffffffffffffff16600060019054906101000a900473ffffffffffffffffffffffffffffffffffffffff1673ffffffffffffffffffffffffffffffffffffffff16145b600190613170576040517f08c379a000000000000000000000000000000000000000000000000000000000815260040180806020018281038252838181546001816001161561010002031660029004815260200191508054600181600116156101000203166002900480156131615780601f1061313657610100808354040283529160200191613161565b820191906000526020600020905b81548152906001019060200180831161314457829003601f168201915b50509250505060405180910390fd5b5061317b83836128b2565b6131ed576040517f08c379a00000000000000000000000000000000000000000000000000000000081526004018080602001828103825260158152602001807f4120666c696768742073686f756c64206578697374000000000000000000000081525060200191505060405180910390fd5b806003600085815260200190815260200160002060020160006101000a81548160ff021916908360ff1602179055507f4b7a8f30bc6fc4dca25c71d2d89d56a9df3656509ce47afd5a4ec3c84470650d6003600085815260200190815260200160002060000160009054906101000a900473ffffffffffffffffffffffffffffffffffffffff168460148460ff1614604051808473ffffffffffffffffffffffffffffffffffffffff1673ffffffffffffffffffffffffffffffffffffffff16815260200183815260200182151515158152602001935050505060405180910390a1505050565b6000809054906101000a900460ff16613355576040517f08c379a000000000000000000000000000000000000000000000000000000000815260040180806020018281038252601e8152602001807f436f6e74726163742073686f756c64206265206f7065726174696f6e616c000081525060200191505060405180910390fd5b600260003373ffffffffffffffffffffffffffffffffffffffff1673ffffffffffffffffffffffffffffffffffffffff16815260200190815260200160002060009054906101000a900460ff16806133fa57503373ffffffffffffffffffffffffffffffffffffffff16600060019054906101000a900473ffffffffffffffffffffffffffffffffffffffff1673ffffffffffffffffffffffffffffffffffffffff16145b6001906134bf576040517f08c379a000000000000000000000000000000000000000000000000000000000815260040180806020018281038252838181546001816001161561010002031660029004815260200191508054600181600116156101000203166002900480156134b05780601f10613485576101008083540402835291602001916134b0565b820191906000526020600020905b81548152906001019060200180831161349357829003601f168201915b50509250505060405180910390fd5b50826003600560008373ffffffffffffffffffffffffffffffffffffffff1673ffffffffffffffffffffffffffffffffffffffff16815260200190815260200160002060000160149054906101000a900460ff1660ff1614613589576040517f08c379a00000000000000000000000000000000000000000000000000000000081526004018080602001828103825260168152602001807f4169726c696e65206d7573742062652066756e6465640000000000000000000081525060200191505060405180910390fd5b613591614124565b60405180608001604052808673ffffffffffffffffffffffffffffffffffffffff168152602001858152602001600060ff168152602001848152509050806003600086815260200190815260200160002060008201518160000160006101000a81548173ffffffffffffffffffffffffffffffffffffffff021916908373ffffffffffffffffffffffffffffffffffffffff1602179055506020820151816001015560408201518160020160006101000a81548160ff021916908360ff1602179055506060820151816003015590505060048490806001815401808255809150509060018203906000526020600020016000909192909190915055507fa6daaeee9bdf2cc601540c66e0a72db374da1f25a4066b79e40ae7134729259b858585604051808473ffffffffffffffffffffffffffffffffffffffff1673ffffffffffffffffffffffffffffffffffffffff168152602001838152602001828152602001935050505060405180910390a15050505050565b6000809054906101000a900460ff16613788576040517f08c379a000000000000000000000000000000000000000000000000000000000815260040180806020018281038252601e8152602001807f436f6e74726163742073686f756c64206265206f7065726174696f6e616c000081525060200191505060405180910390fd5b600260003373ffffffffffffffffffffffffffffffffffffffff1673ffffffffffffffffffffffffffffffffffffffff16815260200190815260200160002060009054906101000a900460ff168061382d57503373ffffffffffffffffffffffffffffffffffffffff16600060019054906101000a900473ffffffffffffffffffffffffffffffffffffffff1673ffffffffffffffffffffffffffffffffffffffff16145b6001906138f2576040517f08c379a000000000000000000000000000000000000000000000000000000000815260040180806020018281038252838181546001816001161561010002031660029004815260200191508054600181600116156101000203166002900480156138e35780601f106138b8576101008083540402835291602001916138e3565b820191906000526020600020905b8154815290600101906020018083116138c657829003601f168201915b50509250505060405180910390fd5b5082600073ffffffffffffffffffffffffffffffffffffffff16600560008373ffffffffffffffffffffffffffffffffffffffff1673ffffffffffffffffffffffffffffffffffffffff16815260200190815260200160002060000160009054906101000a900473ffffffffffffffffffffffffffffffffffffffff1673ffffffffffffffffffffffffffffffffffffffff16146139f8576040517f08c379a00000000000000000000000000000000000000000000000000000000081526004018080602001828103825260168152602001807f4169726c696e65206d757374206e6f742065786973740000000000000000000081525060200191505060405180910390fd5b6040518060a001604052808573ffffffffffffffffffffffffffffffffffffffff168152602001600160ff16815260200184848080601f016020809104026020016040519081016040528093929190818152602001838380828437600081840152601f19601f820116905080830192505050505050508152602001600081526020016000815250600560008673ffffffffffffffffffffffffffffffffffffffff1673ffffffffffffffffffffffffffffffffffffffff16815260200190815260200160002060008201518160000160006101000a81548173ffffffffffffffffffffffffffffffffffffffff021916908373ffffffffffffffffffffffffffffffffffffffff16021790555060208201518160000160146101000a81548160ff021916908360ff1602179055506040820151816001019080519060200190613b42929190614168565b50606082015181600201556080820151816003015590505060068490806001815401808255809150509060018203906000526020600020016000909192909190916101000a81548173ffffffffffffffffffffffffffffffffffffffff021916908373ffffffffffffffffffffffffffffffffffffffff1602179055505060006008541415613cd8576002600560008673ffffffffffffffffffffffffffffffffffffffff1673ffffffffffffffffffffffffffffffffffffffff16815260200190815260200160002060000160146101000a81548160ff021916908360ff1602179055507f66fed4c377331ab0614602ea289bafa17eb0d2dc2c777880187554cb41e8696584856001604051808473ffffffffffffffffffffffffffffffffffffffff1673ffffffffffffffffffffffffffffffffffffffff1681526020018373ffffffffffffffffffffffffffffffffffffffff1673ffffffffffffffffffffffffffffffffffffffff16815260200182151515158152602001935050505060405180910390a16001600881905550613d90565b60046008541015613d30576001600560008673ffffffffffffffffffffffffffffffffffffffff1673ffffffffffffffffffffffffffffffffffffffff16815260200190815260200160002060020181905550613d8f565b600460085410613d8e57613d476008546002613f8c565b600560008673ffffffffffffffffffffffffffffffffffffffff1673ffffffffffffffffffffffffffffffffffffffff168152602001908152602001600020600201819055505b5b5b7fd73dda126c284b57cf9a8cc206a506537e1cdcef4c6a37525cf1fb367248c30384604051808273ffffffffffffffffffffffffffffffffffffffff1673ffffffffffffffffffffffffffffffffffffffff16815260200191505060405180910390a150505050565b6000806000600960008673ffffffffffffffffffffffffffffffffffffffff1673ffffffffffffffffffffffffffffffffffffffff1681526020019081526020016000206000858152602001908152602001600020905080600101548160020160009054906101000a900460ff1692509250509250929050565b600080600a60008473ffffffffffffffffffffffffffffffffffffffff1673ffffffffffffffffffffffffffffffffffffffff1681526020019081526020016000205490506000600a60008573ffffffffffffffffffffffffffffffffffffffff1673ffffffffffffffffffffffffffffffffffffffff1681526020019081526020016000208190555080915050919050565b600080831415613f195760009050613f86565b6000828402905082848281613f2a57fe5b0414613f81576040517f08c379a00000000000000000000000000000000000000000000000000000000081526004018080602001828103825260218152602001806142586021913960400191505060405180910390fd5b809150505b92915050565b6000613fce83836040518060400160405280601a81526020017f536166654d6174683a206469766973696f6e206279207a65726f00000000000081525061405e565b905092915050565b600080828401905083811015614054576040517f08c379a000000000000000000000000000000000000000000000000000000000815260040180806020018281038252601b8152602001807f536166654d6174683a206164646974696f6e206f766572666c6f77000000000081525060200191505060405180910390fd5b8091505092915050565b6000808311829061410a576040517f08c379a00000000000000000000000000000000000000000000000000000000081526004018080602001828103825283818151815260200191508051906020019080838360005b838110156140cf5780820151818401526020810190506140b4565b50505050905090810190601f1680156140fc5780820380516001836020036101000a031916815260200191505b509250505060405180910390fd5b50600083858161411657fe5b049050809150509392505050565b6040518060800160405280600073ffffffffffffffffffffffffffffffffffffffff16815260200160008019168152602001600060ff168152602001600081525090565b828054600181600116156101000203166002900490600052602060002090601f016020900481019282601f106141a957805160ff19168380011785556141d7565b828001600101855582156141d7579182015b828111156141d65782518255916020019190600101906141bb565b5b5090506141e491906141e8565b5090565b61420a91905b808211156142065760008160009055506001016141ee565b5090565b9056fe54686572652073686f756c6420626520736f6d65206d6f6e657920746f207061796f75742e616d6f756e7420746f2062652061646465642073686f756c6420626520706f736974697665536166654d6174683a206d756c7469706c69636174696f6e206f766572666c6f77496e737572616e636520506f6c696379206e6565647320736f6d6520616d6f756e7470617373656e6765722073686f756c6420686176652074686520696e737572616e6365546f74616c20616d6f756e742073686f756c64206265206c657373207468616e203120657468657243616e206e6f7420766f746520666f7220616e206169726c696e65207477696365a265627a7a72315820eea4b5ac9cdead0e47cbaf26dc1a41d6216c260dec48dfc07957a74caf0233d764736f6c63430005100032",
  "source": "pragma solidity >=0.4.21 <0.7.0;\n\nimport \"./SafeMath.sol\";\nimport \"./IsOperational.sol\";\n\ncontract FlightSuretyData is IsOperational {\n    using SafeMath for uint256;\n\n    /********************************************************************************************/\n    /*                                       EVENT DEFINITIONS                                  */\n    /********************************************************************************************/\n\n    event AIRLINE_REGISTERED(address airlineAddress);\n    event AIRLINE_APPROVED(address airlineAddress, address approvingAirline, bool approved);\n    event AIRLINE_FUNDED(address airlineAddress);\n\n    event FLIGHT_ADDED(address airlineAddress, bytes32 flightKey, uint256 timestamp);\n    event FLIGHT_STATUS_UPDATED(address airlineAddress, bytes32 flightKey, bool late);\n\n    event PASSENGER_INSURANCE_PURCHASED(address passengerAddress, address airlineAddress, bytes32 flightKey, uint256 amount);\n    event PASSENGER_INSURANCE_CLAIMED(address passengerAddress, address airlineAddress, bytes32 flightKey, uint256 amount);\n    event PASSENGER_PAYOUT(address passengerAddress, uint256 amount);\n\n    /********************************************************************************************/\n    /*                                     SMART CONTRACT FUNCTIONS                             */\n    /********************************************************************************************/\n\n    constructor()\n    IsOperational(msg.sender, \"Data\")\n    public\n    {\n\n    }\n\n    function creditInsurees()\n    requireIsOperational\n    requireContractOwner\n    external\n    {\n        for (uint8 i = 0; i < allFlightKeys.length; i++)\n        {\n            Flight storage flight = flightInfo[allFlightKeys[i]];\n            if (flight.statusCode != 0) {\n                for (uint8 j = 0; j< passengers.length; j++) {\n                    address passengerAddress = passengers[j];\n                    if (flight.statusCode == 20 && passengerInsurances[passengerAddress][allFlightKeys[i]].amount > 0) {\n\n                            uint256 amount = SafeMath.div(SafeMath.mul(passengerInsurances[passengerAddress][allFlightKeys[i]].amount, 3), 2);\n                            require(amount > 0, \"amount to be added should be positive\");\n                            passengerCredit[passengerAddress] = SafeMath.add(passengerCredit[passengerAddress], amount);\n                            passengerInsurances[passengerAddress][allFlightKeys[i]].insuranceStatus = 2;\n                    } else {\n                        passengerInsurances[passengerAddress][allFlightKeys[i]].insuranceStatus = 1;\n                    }\n                }\n            }\n        }\n    }\n\n    /**\n     *  @dev Transfers eligible payout funds to insuree\n     *\n    */\n    function pay(address passengerAddress)\n    requireIsOperational\n    requireContractOwner\n    payable\n    external\n    {\n        require(passengerCredit[passengerAddress] > 0, \"There should be some money to payout.\");\n        uint256 amount = payout(passengerAddress);\n        address(uint160(passengerAddress)).transfer(amount);\n        emit PASSENGER_PAYOUT(passengerAddress, amount);\n    }\n\n   /**\n    * @dev Initial funding for the insurance. Unless there are too many delayed flights\n    *      resulting in insurance payouts, the contract should be self-sustaining\n    *\n    */\n    function fund(uint256 amount)\n    public\n    payable\n    requireIsOperational\n    requireContractOwner\n    {\n        address(this).transfer(amount);\n    }\n\n    function getFlightKey(address airline, string memory flight, uint256 timestamp)\n    pure\n    internal\n    returns(bytes32)\n    {\n        return keccak256(abi.encodePacked(airline, flight, timestamp));\n    }\n\n    /**\n    * @dev Fallback function for funding smart contract.\n    *\n    */\n    function()\n    external\n    payable\n    {\n    }\n\n    /********************************************************************************************/\n    /*                                       Airline Operations                                */\n    /********************************************************************************************/\n\n    struct Flight {\n        address airlineAddress;\n        bytes32 flightIdentifier;\n        uint8 statusCode;\n        uint256 scheduledFlightTime;\n    }\n\n    struct Airline {\n        address airlineAddress;\n        // 1 = registered, 2 = approved, 3 = funded and Live\n        uint8 airlineStatus;\n        string airlineCode;\n        uint256 requiredApprovalsCount;\n        uint256 totalApprovals;\n    }\n\n    mapping(bytes32 => Flight) internal flightInfo;\n\n    bytes32[] internal allFlightKeys;\n\n    mapping(address => Airline) internal airlineInfo;\n\n    address[] internal allAirlines;\n\n    mapping(address => mapping(address => bool)) approvals;\n\n    uint256 totalApprovedAirlines = 0;\n\n    modifier isFunded(address airlineAddress)\n    {\n        require(airlineInfo[airlineAddress].airlineStatus == 3, \"Airline must be funded\");\n        _;\n    }\n\n    modifier isRegistered(address airlineAddress)\n    {\n        require(airlineInfo[airlineAddress].airlineStatus == 1, \"Airline must be registered\");\n        _;\n    }\n\n    modifier isApproved(address airlineAddress)\n    {\n        require(airlineInfo[airlineAddress].airlineStatus == 2, \"Airline must be approved\");\n        _;\n    }\n\n    modifier existingAirline(address airlineAddress)\n    {\n        require(airlineInfo[airlineAddress].airlineAddress != address(0), \"Airline must exist\");\n        _;\n    }\n\n    modifier nonExistingAirline(address airlineAddress)\n    {\n        require(airlineInfo[airlineAddress].airlineAddress == address(0), \"Airline must not exist\");\n        _;\n    }\n\n    modifier hasNotVotedAlready(address airlineAddress, address newAirlineAddress)\n    {\n        require(approvals[newAirlineAddress][airlineAddress] == false, \"Can not vote for an airline twice\");\n        _;\n    }\n\n    // register an airline\n    function registerAirline(address airlineAddress, string calldata airlineCode)\n    requireIsOperational\n    requireContractOwner\n    nonExistingAirline(airlineAddress)\n    external\n    {\n        airlineInfo[airlineAddress] = Airline(airlineAddress, 1, airlineCode, 0, 0);\n        allAirlines.push(airlineAddress);\n\n        if (totalApprovedAirlines == 0) {\n            airlineInfo[airlineAddress].airlineStatus = 2;\n            emit AIRLINE_APPROVED(airlineAddress, airlineAddress, true);\n            totalApprovedAirlines = 1;\n        }\n\n       else if(totalApprovedAirlines < 4)\n       {\n           airlineInfo[airlineAddress].requiredApprovalsCount = 1;\n       }\n\n        else if (totalApprovedAirlines >= 4) {\n            airlineInfo[airlineAddress].requiredApprovalsCount = SafeMath.div(totalApprovedAirlines, 2);\n        }\n\n        emit AIRLINE_REGISTERED(airlineAddress);\n\n    }\n\n    // add a flight for the airline\n    function addFlight(address airlineAddress, bytes32 flightIdentifier, uint256 timestamp)\n    requireIsOperational\n    requireContractOwner\n    isFunded(airlineAddress)\n    external\n    {\n        Flight memory flight = Flight(airlineAddress, flightIdentifier, 0 ,timestamp);\n        flightInfo[flightIdentifier] = flight;\n        allFlightKeys.push(flightIdentifier);\n        emit FLIGHT_ADDED(airlineAddress, flightIdentifier, timestamp);\n    }\n\n    // update the flight status\n    function updateFlightStatus(bytes32 flightIdentifier, uint256 timestamp, uint8 statusCode)\n    requireIsOperational\n    requireContractOwner\n    external\n    {\n        require(isValidFlight(flightIdentifier, timestamp), \"A flight should exist\");\n        flightInfo[flightIdentifier].statusCode = statusCode;\n        emit FLIGHT_STATUS_UPDATED(flightInfo[flightIdentifier].airlineAddress, flightIdentifier, statusCode == 20);\n    }\n\n    // check if the given flight is a valid flight\n    function isValidFlight(bytes32 flightIdentifier, uint256 timestamp)\n    public\n    view\n    returns(bool)\n    {\n        return flightInfo[flightIdentifier].scheduledFlightTime == timestamp;\n    }\n\n    // method to pay registration fee\n    function payRegistrationFee(address airlineAddress)\n    isApproved(airlineAddress)\n    external\n    {\n        airlineInfo[airlineAddress].airlineStatus = 3;\n        emit AIRLINE_FUNDED(airlineAddress);\n    }\n\n    function approveAirline(address airlineAddress, address newAirlineAddress)\n    requireIsOperational\n    requireContractOwner\n    isFunded(airlineAddress)\n    hasNotVotedAlready(airlineAddress, newAirlineAddress)\n    external\n    {\n        airlineInfo[newAirlineAddress].totalApprovals = airlineInfo[newAirlineAddress].totalApprovals + 1;\n        if (airlineInfo[newAirlineAddress].totalApprovals >= airlineInfo[newAirlineAddress].requiredApprovalsCount)\n        {\n            airlineInfo[newAirlineAddress].airlineStatus = 2;\n            totalApprovedAirlines = SafeMath.add(totalApprovedAirlines, 1);\n        }\n\n        emit AIRLINE_APPROVED(airlineAddress, airlineAddress, airlineInfo[newAirlineAddress].airlineStatus == 2);\n    }\n\n    function getFlights()\n    external\n    view\n    returns(bytes32[] memory)\n    {\n        return allFlightKeys;\n    }\n\n    function getFlightInfo(bytes32 flightIdentifier)\n    external\n    view\n    returns(address, bytes32, uint8, uint256)\n    {\n        Flight storage flight = flightInfo[flightIdentifier];\n        return (flight.airlineAddress, flight.flightIdentifier, flight.statusCode, flight.scheduledFlightTime);\n    }\n\n    function getAllAirlines()\n    external\n    view\n    returns(address[] memory)\n    {\n        return allAirlines;\n    }\n\n    function getAirlineInfo(address airlineAddress)\n    external\n    view\n    returns(address, uint8, string memory, uint256, uint256)\n    {\n        Airline storage airline = airlineInfo[airlineAddress];\n        return (airline.airlineAddress, airline.airlineStatus, airline.airlineCode, airline.requiredApprovalsCount, airline.totalApprovals);\n    }\n\n    /********************************************************************************************/\n    /*                                       PASSENGER Functions                                */\n    /********************************************************************************************/\n\n    struct Insurance {\n        // flight number\n        bytes32 flightIdentifier;\n        // amount\n        uint256 amount;\n        // status (0 = purchased, 1 = expired, 2 = claimed)\n        uint8 insuranceStatus;\n    }\n\n    // mapping (passengerAddress => insuranceId)\n    mapping(address => mapping(bytes32 => Insurance)) private passengerInsurances;\n\n    // mapping (passengerAddress => remainingFundsToCredit)\n    mapping(address => uint256) private passengerCredit;\n\n    // stores the passenger insuranceKeys\n    mapping(address => bytes32[]) private passengerInsuranceKeys;\n\n    mapping(address => bool) private passengerRegistered;\n\n    address[] private passengers;\n\n    /**\n    * @dev Modifier that requires the \"ContractOwner\" account to be the function caller\n    */\n    modifier hasEnoughFunds(uint256 amount)\n    {\n        require(amount > 0 ether, \"Insurance Policy needs some amount\");\n        require(amount  < 1 ether, \"Total amount should be less than 1 ether\");\n        _;\n    }\n\n    modifier hasInsurance(address passengerAddress, bytes32 flightIdentifier)\n    {\n        require(passengerInsurances[passengerAddress][flightIdentifier].amount > 0, \"passenger should have the insurance\");\n        _;\n    }\n\n    modifier duplicateInsurance(address passengerAddress, bytes32 flightIdentifier)\n    {\n        require(passengerInsurances[passengerAddress][flightIdentifier].amount == 0, \"can not buy duplicate insurance\");\n        _;\n    }\n\n    // passenger can buy insurance using this method\n    function buyInsuranceInternal(address passengerAddress, bytes32 flightIdentifier, uint256 amount)\n    external\n    payable\n    requireIsOperational\n    requireContractOwner\n    duplicateInsurance(passengerAddress, flightIdentifier)\n    hasEnoughFunds(amount)\n    {\n        address(this).transfer(amount);\n        if (passengerRegistered[passengerAddress] == false) {\n            passengers.push(passengerAddress);\n        }\n        passengerInsurances[passengerAddress][flightIdentifier] = Insurance(flightIdentifier, uint256(amount), 0);\n        passengerInsuranceKeys[passengerAddress].push(flightIdentifier);\n    }\n\n    // passenger can claim insurance for a flight\n    function claimInsurance(address passengerAddress, bytes32 flightIdentifier)\n    external\n    requireIsOperational\n    requireContractOwner\n    hasInsurance(passengerAddress, flightIdentifier)\n    {\n        if (flightInfo[flightIdentifier].statusCode == 20)\n        {\n            uint256 amount = SafeMath.div(SafeMath.mul(passengerInsurances[passengerAddress][flightIdentifier].amount, 3), 2);\n            passengerCredit[passengerAddress] = passengerCredit[passengerAddress] + amount;\n            passengerInsurances[passengerAddress][flightIdentifier].insuranceStatus = 2;\n        }\n    }\n\n    function payout(address passengerAddress)\n    internal\n    returns(uint256)\n    {\n        uint256 amount = passengerCredit[passengerAddress];\n        passengerCredit[passengerAddress] = 0;\n        return amount;\n    }\n\n    function getPassengerInsurances(address passengerAddress)\n    external\n    view\n    returns(bytes32[] memory)\n    {\n        return passengerInsuranceKeys[passengerAddress];\n    }\n\n    function getPassengerInsurance(address passengerAddress, bytes32 flightIdentifier)\n    external\n    view\n    returns(uint256, uint8)\n    {\n        Insurance storage insurance = passengerInsurances[passengerAddress][flightIdentifier];\n        return (insurance.amount, insurance.insuranceStatus);\n    }\n\n    function getPassengerCredit(address passengerAddress)\n    external\n    view\n    returns(uint256)\n    {\n        return passengerCredit[passengerAddress];\n    }\n}\n\n",
  "sourcePath": "/Users/paagarwal/Documents/block-chain/projects/FlightSuretyV2/contracts/FlightSuretyData.sol",
  "compiler": {
    "name": "solc",
    "version": "0.5.16+commit.9c3226ce.Emscripten.clang"
  },
  "schemaVersion": "3.1.0",
  "updatedAt": "2020-04-26T18:03:48.311Z",
  "networkType": "ethereum",
  "devdoc": {
    "methods": {
      "fund(uint256)": {
        "details": "Initial funding for the insurance. Unless there are too many delayed flights     resulting in insurance payouts, the contract should be self-sustaining    "
      },
      "pay(address)": {
        "details": "Transfers eligible payout funds to insuree    "
      }
    }
  },
  "userdoc": {
    "methods": {
      "constructor": "*****************************************************************************************"
    }
  }
}